{
  "address": "0x00ffE2dadbBD172e3EfE1a33FCa8dE77F11A472F",
  "abi": [
    {
      "inputs": [
        {
          "internalType": "address",
          "name": "_soldToken",
          "type": "address"
        },
        {
          "internalType": "uint256",
          "name": "_salePrice",
          "type": "uint256"
        },
        {
          "internalType": "uint256",
          "name": "_maxCount",
          "type": "uint256"
        },
        {
          "internalType": "uint256",
          "name": "_vipReserve",
          "type": "uint256"
        }
      ],
      "stateMutability": "nonpayable",
      "type": "constructor"
    },
    {
      "anonymous": false,
      "inputs": [
        {
          "indexed": true,
          "internalType": "address",
          "name": "contractAddress",
          "type": "address"
        },
        {
          "indexed": true,
          "internalType": "address",
          "name": "controllerAddress",
          "type": "address"
        }
      ],
      "name": "ControllerAdded",
      "type": "event"
    },
    {
      "anonymous": false,
      "inputs": [
        {
          "indexed": true,
          "internalType": "address",
          "name": "contractAddress",
          "type": "address"
        },
        {
          "indexed": true,
          "internalType": "address",
          "name": "controllerAddress",
          "type": "address"
        }
      ],
      "name": "ControllerRemoved",
      "type": "event"
    },
    {
      "anonymous": false,
      "inputs": [
        {
          "indexed": true,
          "internalType": "address",
          "name": "receiver",
          "type": "address"
        }
      ],
      "name": "PayeeChanged",
      "type": "event"
    },
    {
      "anonymous": false,
      "inputs": [
        {
          "indexed": true,
          "internalType": "address",
          "name": "partner",
          "type": "address"
        },
        {
          "indexed": false,
          "internalType": "uint256",
          "name": "permill",
          "type": "uint256"
        }
      ],
      "name": "RevenuePartnerChanged",
      "type": "event"
    },
    {
      "anonymous": false,
      "inputs": [
        {
          "indexed": true,
          "internalType": "address",
          "name": "receiver",
          "type": "address"
        },
        {
          "indexed": false,
          "internalType": "uint256",
          "name": "tokenHash",
          "type": "uint256"
        }
      ],
      "name": "TokenSold",
      "type": "event"
    },
    {
      "inputs": [
        {
          "internalType": "address",
          "name": "_controller",
          "type": "address"
        }
      ],
      "name": "addController",
      "outputs": [],
      "stateMutability": "nonpayable",
      "type": "function"
    },
    {
      "inputs": [],
      "name": "getOpenState",
      "outputs": [
        {
          "internalType": "bool",
          "name": "openState",
          "type": "bool"
        }
      ],
      "stateMutability": "view",
      "type": "function"
    },
    {
      "inputs": [],
      "name": "getPayee",
      "outputs": [
        {
          "internalType": "address",
          "name": "",
          "type": "address"
        }
      ],
      "stateMutability": "view",
      "type": "function"
    },
    {
      "inputs": [],
      "name": "getRevenuePartner",
      "outputs": [
        {
          "internalType": "address",
          "name": "partner",
          "type": "address"
        },
        {
          "internalType": "uint256",
          "name": "permill",
          "type": "uint256"
        }
      ],
      "stateMutability": "view",
      "type": "function"
    },
    {
      "inputs": [],
      "name": "getSalePrice",
      "outputs": [
        {
          "internalType": "uint256",
          "name": "",
          "type": "uint256"
        }
      ],
      "stateMutability": "view",
      "type": "function"
    },
    {
      "inputs": [],
      "name": "getSaleToken",
      "outputs": [
        {
          "internalType": "address",
          "name": "token",
          "type": "address"
        }
      ],
      "stateMutability": "view",
      "type": "function"
    },
    {
      "inputs": [
        {
          "internalType": "address",
          "name": "partner",
          "type": "address"
        },
        {
          "internalType": "uint256",
          "name": "permill",
          "type": "uint256"
        }
      ],
      "name": "initialize",
      "outputs": [],
      "stateMutability": "nonpayable",
      "type": "function"
    },
    {
      "inputs": [
        {
          "internalType": "address",
          "name": "_address",
          "type": "address"
        }
      ],
      "name": "isController",
      "outputs": [
        {
          "internalType": "bool",
          "name": "allowed",
          "type": "bool"
        }
      ],
      "stateMutability": "view",
      "type": "function"
    },
    {
      "inputs": [
        {
          "internalType": "address",
          "name": "receiver",
          "type": "address"
        },
        {
          "internalType": "uint256",
          "name": "tokenHash",
          "type": "uint256"
        }
      ],
      "name": "mint",
      "outputs": [],
      "stateMutability": "nonpayable",
      "type": "function"
    },
    {
      "inputs": [],
      "name": "minterList",
      "outputs": [
        {
          "components": [
            {
              "internalType": "address",
              "name": "recipient",
              "type": "address"
            },
            {
              "internalType": "uint256",
              "name": "tokenHash",
              "type": "uint256"
            }
          ],
          "internalType": "struct ITokenSale.TokenMinting[]",
          "name": "_list",
          "type": "tuple[]"
        }
      ],
      "stateMutability": "view",
      "type": "function"
    },
    {
      "inputs": [
        {
          "internalType": "address",
          "name": "receiver",
          "type": "address"
        },
        {
          "internalType": "uint256",
          "name": "quantity",
          "type": "uint256"
        }
      ],
      "name": "purchase",
      "outputs": [
        {
          "components": [
            {
              "internalType": "address",
              "name": "recipient",
              "type": "address"
            },
            {
              "internalType": "uint256",
              "name": "tokenHash",
              "type": "uint256"
            }
          ],
          "internalType": "struct ITokenSale.TokenMinting[]",
          "name": "mintings",
          "type": "tuple[]"
        }
      ],
      "stateMutability": "payable",
      "type": "function"
    },
    {
      "inputs": [],
      "name": "purchaserList",
      "outputs": [
        {
          "components": [
            {
              "internalType": "address",
              "name": "recipient",
              "type": "address"
            },
            {
              "internalType": "uint256",
              "name": "tokenHash",
              "type": "uint256"
            }
          ],
          "internalType": "struct ITokenSale.TokenMinting[]",
          "name": "_list",
          "type": "tuple[]"
        }
      ],
      "stateMutability": "view",
      "type": "function"
    },
    {
      "inputs": [],
      "name": "relinquishControl",
      "outputs": [],
      "stateMutability": "nonpayable",
      "type": "function"
    },
    {
      "inputs": [
        {
          "internalType": "uint256",
          "name": "quantity",
          "type": "uint256"
        }
      ],
      "name": "salePrice",
      "outputs": [
        {
          "internalType": "uint256",
          "name": "price",
          "type": "uint256"
        }
      ],
      "stateMutability": "view",
      "type": "function"
    },
    {
      "inputs": [
        {
          "internalType": "bool",
          "name": "openState",
          "type": "bool"
        }
      ],
      "name": "setOpenState",
      "outputs": [],
      "stateMutability": "nonpayable",
      "type": "function"
    },
    {
      "inputs": [
        {
          "internalType": "address",
          "name": "_payee",
          "type": "address"
        }
      ],
      "name": "setPayee",
      "outputs": [],
      "stateMutability": "nonpayable",
      "type": "function"
    },
    {
      "inputs": [
        {
          "internalType": "address",
          "name": "partner",
          "type": "address"
        },
        {
          "internalType": "uint256",
          "name": "permill",
          "type": "uint256"
        }
      ],
      "name": "setRevenuePartner",
      "outputs": [],
      "stateMutability": "nonpayable",
      "type": "function"
    },
    {
      "inputs": [
        {
          "internalType": "uint256",
          "name": "_salePrice",
          "type": "uint256"
        }
      ],
      "name": "setSalePrice",
      "outputs": [],
      "stateMutability": "nonpayable",
      "type": "function"
    }
  ],
  "transactionHash": "0x216cbc7aac5b659d01bcdca0bb7b66c7ee696d41a2b828ae0a587def0b6431ba",
  "args": [
    "0xc5AFB9F659B149A20D2171daa1E45DA19Fc88ccD",
    "100000000000000000",
    9999,
    25
  ],
  "solcInputHash": "21cb6fc5229af78c1b03b2428276b37d",
  "bytecode": "0x608060405234801561001057600080fd5b506040516116c83803806116c883398101604081905261002f916100b2565b610057336001600160a01b03166000908152602081905260409020805460ff19166001179055565b6001805462010000600160b01b031916336201000002179055600280546001600160a01b0319166001600160a01b039590951694909417909355600391909155600060048190556005919091556006919091556007556100fb565b600080600080608085870312156100c7578384fd5b84516001600160a01b03811681146100dd578485fd5b60208601516040870151606090970151919890975090945092505050565b6115be8061010a6000396000f3fe6080604052600436106101295760003560e01c8063a7fc7a07116100a5578063e1c28bef11610074578063ec3dd11611610059578063ec3dd1161461034f578063edf85f511461036d578063f36c616f1461038d57600080fd5b8063e1c28bef146102f7578063e8a010631461030c57600080fd5b8063a7fc7a0714610246578063b429afeb14610266578063cd4467351461029f578063cd6dc687146102d757600080fd5b8063410459ad116100fc5780634daf4c42116100e15780634daf4c42146101ef5780635a4c84451461020f5780638de932221461023357600080fd5b8063410459ad146101ba57806341f08b52146101da57600080fd5b80631317b5871461012e5780631919fed7146101595780632fbc0bf11461017b57806340c10f191461019a575b600080fd5b34801561013a57600080fd5b506101436103ad565b6040516101509190611479565b60405180910390f35b34801561016557600080fd5b50610179610174366004611461565b610422565b005b34801561018757600080fd5b506003545b604051908152602001610150565b3480156101a657600080fd5b506101796101b5366004611416565b6104fd565b3480156101c657600080fd5b506101796101d53660046113d7565b6107ac565b3480156101e657600080fd5b506101436108f0565b3480156101fb57600080fd5b5061017961020a366004611416565b61095b565b34801561021b57600080fd5b50600c5460ff165b6040519015158152602001610150565b610143610241366004611416565b610aba565b34801561025257600080fd5b506101796102613660046113d7565b610fb8565b34801561027257600080fd5b506102236102813660046113d7565b6001600160a01b031660009081526020819052604090205460ff1690565b3480156102ab57600080fd5b506001546201000090046001600160a01b03165b6040516001600160a01b039091168152602001610150565b3480156102e357600080fd5b506101796102f2366004611416565b61105b565b34801561030357600080fd5b50610179611297565b34801561031857600080fd5b50610330600a54600b546001600160a01b0390911691565b604080516001600160a01b039093168352602083019190915201610150565b34801561035b57600080fd5b506002546001600160a01b03166102bf565b34801561037957600080fd5b5061018c610388366004611461565b61132f565b34801561039957600080fd5b506101796103a8366004611441565b611345565b60606008805480602002602001604051908101604052809291908181526020016000905b82821015610419576000848152602090819020604080518082019091526002850290910180546001600160a01b031682526001908101548284015290835290920191016103d1565b50505050905090565b3360009081526020819052604090205460ff1615156001148061044457503033145b6104a65760405162461bcd60e51b815260206004820152602860248201527f436f6e74726f6c6c61626c653a2063616c6c6572206973206e6f74206120636f604482015267373a3937b63632b960c11b60648201526084015b60405180910390fd5b6000600354116104f85760405162461bcd60e51b815260206004820181905260248201527f73616c655072696365206d7573742062652067726561746572207468616e2030604482015260640161049d565b600355565b3360009081526020819052604090205460ff1615156001148061051f57503033145b61057c5760405162461bcd60e51b815260206004820152602860248201527f436f6e74726f6c6c61626c653a2063616c6c6572206973206e6f74206120636f604482015267373a3937b63632b960c11b606482015260840161049d565b600654600754106105f55760405162461bcd60e51b815260206004820152602160248201527f63616e6e6f74206d696e74206d6f7265207468616e207468652072657365727660448201527f6500000000000000000000000000000000000000000000000000000000000000606482015260840161049d565b600554600454106106485760405162461bcd60e51b815260206004820152601e60248201527f63616e6e6f74206d696e74206d6f7265207468616e206d6178436f756e740000604482015260640161049d565b6007546106569060016114d1565b6007556004546106679060016114d1565b60048190555060096040518060400160405280846001600160a01b031681526020016106e26004546040516bffffffffffffffffffffffff1930606090811b8216602084015233901b16603482015260488101919091526000906068016040516020818303038152906040528051906020012060001c905090565b9052815460018082018455600093845260209384902083516002938402909101805473ffffffffffffffffffffffffffffffffffffffff19166001600160a01b039283161781559390940151920191909155546040517f40c10f190000000000000000000000000000000000000000000000000000000081528483166004820152602481018490529116906340c10f1990604401600060405180830381600087803b15801561079057600080fd5b505af11580156107a4573d6000803e3d6000fd5b505050505050565b3360009081526020819052604090205460ff161515600114806107ce57503033145b61082b5760405162461bcd60e51b815260206004820152602860248201527f436f6e74726f6c6c61626c653a2063616c6c6572206973206e6f74206120636f604482015267373a3937b63632b960c11b606482015260840161049d565b6001600160a01b0381166108815760405162461bcd60e51b815260206004820152601d60248201527f70617965652063616e6e6f6f74206265207a65726f2061646472657373000000604482015260640161049d565b600180547fffffffffffffffffffff0000000000000000000000000000000000000000ffff16620100006001600160a01b0384811682029290921792839055604051920416907f2053f52cc4bae36f993510e31596b2873fbb03ad574710ee044429b73ceb9aff90600090a250565b606060098054806020026020016040519081016040528092919081815260200160009082821015610419576000848152602090819020604080518082019091526002850290910180546001600160a01b031682526001908101548284015290835290920191016103d1565b3360009081526020819052604090205460ff1615156001148061097d57503033145b6109da5760405162461bcd60e51b815260206004820152602860248201527f436f6e74726f6c6c61626c653a2063616c6c6572206973206e6f74206120636f604482015267373a3937b63632b960c11b606482015260840161049d565b620f4240811115610a535760405162461bcd60e51b815260206004820152602560248201527f7065726d696c6c206d757374206265206265747765656e203020616e6420313060448201527f3030303030000000000000000000000000000000000000000000000000000000606482015260840161049d565b600a805473ffffffffffffffffffffffffffffffffffffffff19166001600160a01b038416908117909155600b8290556040518281527f4e9b09441471ab29764768f4e2f064608fd401c79096bb4132e0e27a64b8ea879060200160405180910390a25050565b606060055460065483600454610ad091906114d1565b610ada91906114d1565b1115610b4e5760405162461bcd60e51b815260206004820152602260248201527f63616e6e6f74207075726368617365206d6f7265207468616e206d6178436f7560448201527f6e74000000000000000000000000000000000000000000000000000000000000606482015260840161049d565b3482600354610b5d9190611509565b1115610bd15760405162461bcd60e51b815260206004820152602360248201527f6d757374206174746163682066756e647320746f20707572636861736520697460448201527f656d730000000000000000000000000000000000000000000000000000000000606482015260840161049d565b600082118015610be2575060058211155b610c545760405162461bcd60e51b815260206004820152602160248201527f63616e6e6f74207075726368617365206d6f7265207468616e2035206974656d60448201527f7300000000000000000000000000000000000000000000000000000000000000606482015260840161049d565b600c5460ff16610ccb5760405162461bcd60e51b8152602060048201526024808201527f63616e6e6f74206d696e74207768656e20746f6b656e73616c6520697320636c60448201527f6f73656400000000000000000000000000000000000000000000000000000000606482015260840161049d565b8167ffffffffffffffff811115610cf257634e487b7160e01b600052604160045260246000fd5b604051908082528060200260200182016040528015610d3757816020015b6040805180820190915260008082526020820152815260200190600190039081610d105790505b50905060005b82811015610ee45760006040518060400160405280866001600160a01b03168152602001610dba6004546040516bffffffffffffffffffffffff1930606090811b8216602084015233901b16603482015260488101919091526000906068016040516020818303038152906040528051906020012060001c905090565b90526008805460018101825560009190915281517ff3f7a9fe364faab93b216da50a3214154f22a0a2b415b23a84c8169e8b636ee36002909202918201805473ffffffffffffffffffffffffffffffffffffffff19166001600160a01b0390921691909117905560208201517ff3f7a9fe364faab93b216da50a3214154f22a0a2b415b23a84c8169e8b636ee49091015583519091508190849084908110610e7257634e487b7160e01b600052603260045260246000fd5b60200260200101819052506004546001610e8c91906114d1565b6004556020818101516040519081526001600160a01b038716917ffe2ff4cf36ff7d2c2b06eb960897ee0d76d9c3e58da12feb7b93e86b226dd344910160405180910390a25080610edc8161153f565b915050610d3d565b50600a546000906001600160a01b031615801590610f0457506000600b54115b15610f6257620f4240600b5434610f1b9190611509565b610f2591906114e9565b600a546040519192506001600160a01b03169082156108fc029083906000818181858888f19350505050158015610f60573d6000803e3d6000fd5b505b6000610f6e8234611528565b6001546040519192506201000090046001600160a01b0316906108fc8315029083906000818181858888f19350505050158015610faf573d6000803e3d6000fd5b50505092915050565b3360009081526020819052604090205460ff16151560011480610fda57503033145b6110375760405162461bcd60e51b815260206004820152602860248201527f436f6e74726f6c6c61626c653a2063616c6c6572206973206e6f74206120636f604482015267373a3937b63632b960c11b606482015260840161049d565b6001600160a01b03166000908152602081905260409020805460ff19166001179055565b600154610100900460ff1680611074575060015460ff16155b6110e65760405162461bcd60e51b815260206004820152602e60248201527f496e697469616c697a61626c653a20636f6e747261637420697320616c72656160448201527f647920696e697469616c697a6564000000000000000000000000000000000000606482015260840161049d565b600154610100900460ff1615801561112557600180547fffffffffffffffffffffffffffffffffffffffffffffffffffffffffffff0000166101011790555b600254604080517ff3667517000000000000000000000000000000000000000000000000000000008152905130926001600160a01b03169163f3667517916004808301926020929190829003018186803b15801561118257600080fd5b505afa158015611196573d6000803e3d6000fd5b505050506040513d601f19601f820116820180604052508101906111ba91906113fa565b6001600160a01b0316146112365760405162461bcd60e51b815260206004820152602f60248201527f736f6c64546f6b656e206d75737420626520636f6e74726f6c6c61626c65206260448201527f79207468697320636f6e74726163740000000000000000000000000000000000606482015260840161049d565b600a805473ffffffffffffffffffffffffffffffffffffffff19166001600160a01b038516179055600b829055801561129257600180547fffffffffffffffffffffffffffffffffffffffffffffffffffffffffffff00ff1690555b505050565b3360009081526020819052604090205460ff161515600114806112b957503033145b6113165760405162461bcd60e51b815260206004820152602860248201527f436f6e74726f6c6c61626c653a2063616c6c6572206973206e6f74206120636f604482015267373a3937b63632b960c11b606482015260840161049d565b336000908152602081905260409020805460ff19169055565b60008160035461133f9190611509565b92915050565b3360009081526020819052604090205460ff1615156001148061136757503033145b6113c45760405162461bcd60e51b815260206004820152602860248201527f436f6e74726f6c6c61626c653a2063616c6c6572206973206e6f74206120636f604482015267373a3937b63632b960c11b606482015260840161049d565b600c805460ff1916911515919091179055565b6000602082840312156113e8578081fd5b81356113f381611570565b9392505050565b60006020828403121561140b578081fd5b81516113f381611570565b60008060408385031215611428578081fd5b823561143381611570565b946020939093013593505050565b600060208284031215611452578081fd5b813580151581146113f3578182fd5b600060208284031215611472578081fd5b5035919050565b602080825282518282018190526000919060409081850190868401855b828110156114c457815180516001600160a01b03168552860151868501529284019290850190600101611496565b5091979650505050505050565b600082198211156114e4576114e461155a565b500190565b60008261150457634e487b7160e01b81526012600452602481fd5b500490565b60008160001904831182151516156115235761152361155a565b500290565b60008282101561153a5761153a61155a565b500390565b60006000198214156115535761155361155a565b5060010190565b634e487b7160e01b600052601160045260246000fd5b6001600160a01b038116811461158557600080fd5b5056fea26469706673582212206da1c51c45c00573db0fb2d0ac20d734365f5d06962e2c009fd5e754ec002f7f64736f6c63430008040033",
  "devdoc": {
    "kind": "dev",
    "methods": {
      "addController(address)": {
        "details": "Add an address allowed to control this contract"
      },
      "constructor": {
        "params": {
          "_maxCount": "- the max quantity",
          "_salePrice": "- the sale price",
          "_soldToken": "- the erc721 address",
          "_vipReserve": "- the vip reserve to set aside for minting directly"
        }
      },
      "getOpenState()": {
        "returns": {
          "openState": "- the open state of the tokensale"
        }
      },
      "getPayee()": {
        "returns": {
          "_0": "salePrice - the open state of the tokensale"
        }
      },
      "getRevenuePartner()": {
        "returns": {
          "partner": "- the address of the partner. will receive x%% of the revenue",
          "permill": "- permilliage of the revenue to be split. permill = 1 / 1000000"
        }
      },
      "getSalePrice()": {
        "returns": {
          "_0": "salePrice - the open state of the tokensale"
        }
      },
      "getSaleToken()": {
        "returns": {
          "token": "- the address of the sole token"
        }
      },
      "initialize(address,uint256)": {
        "details": "called after constructor once to init stuff"
      },
      "isController(address)": {
        "details": "Check if this address is a controller"
      },
      "mint(address,uint256)": {
        "params": {
          "receiver": "- the address of the account receiving the item",
          "tokenHash": "- token hash to mint to the receiver"
        }
      },
      "minterList()": {
        "returns": {
          "_list": "- total list of purchasers"
        }
      },
      "purchase(address,uint256)": {
        "params": {
          "quantity": "- the quantity to purchase. max 5.",
          "receiver": "- the address of the account receiving the item"
        }
      },
      "purchaserList()": {
        "returns": {
          "_list": "- total list of purchasers"
        }
      },
      "relinquishControl()": {
        "details": "Remove the sender address from the list of controllers"
      },
      "salePrice(uint256)": {
        "params": {
          "quantity": "- the quantity to purchase. max 5."
        },
        "returns": {
          "price": "- the sale price for the given quantity"
        }
      },
      "setOpenState(bool)": {
        "params": {
          "openState": "- the open state of the tokensale"
        }
      },
      "setPayee(address)": {
        "params": {
          "_payee": "- the open state of the tokensale"
        }
      },
      "setRevenuePartner(address,uint256)": {
        "params": {
          "partner": "- the address of the partner. will receive x%% of the revenue",
          "permill": "- permilliage of the revenue to be split. min 0 max 1000000"
        }
      },
      "setSalePrice(uint256)": {
        "params": {
          "_salePrice": "- the open state of the tokensale"
        }
      }
    },
    "version": 1
  },
  "userdoc": {
    "kind": "user",
    "methods": {
      "constructor": {
        "notice": "Called to purchase some quantity of a token"
      },
      "getOpenState()": {
        "notice": "get the token sale open state"
      },
      "getPayee()": {
        "notice": "get the token sale price"
      },
      "getRevenuePartner()": {
        "notice": "get the revenue partner on this tokensale. we split revenue with the partner"
      },
      "getSalePrice()": {
        "notice": "get the token sale price"
      },
      "getSaleToken()": {
        "notice": "get the address of the sole token"
      },
      "mint(address,uint256)": {
        "notice": "Mint a specific tokenhash to a specific address ( up to har-cap limit) only for controller of token"
      },
      "minterList()": {
        "notice": "get the total list of minters"
      },
      "purchase(address,uint256)": {
        "notice": "Called to purchase some quantity of a token"
      },
      "purchaserList()": {
        "notice": "get the total list of purchasers"
      },
      "salePrice(uint256)": {
        "notice": "returns the sale price in ETH for the given quantity."
      },
      "setOpenState(bool)": {
        "notice": "open / close the tokensale only for controller of token"
      },
      "setPayee(address)": {
        "notice": "set the psale price only for controller of token"
      },
      "setRevenuePartner(address,uint256)": {
        "notice": "set the revenue partner on this tokensale. we split revenue with the partner only for controller of token"
      },
      "setSalePrice(uint256)": {
        "notice": "set the psale price only for controller of token"
      }
    },
    "notice": "tokensale implementation",
    "version": 1
  },
  "storageLayout": {
    "storage": [
      {
        "astId": 2949,
        "contract": "src/TokenSale.sol:TokenSale",
        "label": "_controllers",
        "offset": 0,
        "slot": "0",
        "type": "t_mapping(t_address,t_bool)"
      },
      {
        "astId": 587,
        "contract": "src/TokenSale.sol:TokenSale",
        "label": "_initialized",
        "offset": 0,
        "slot": "1",
        "type": "t_bool"
      },
      {
        "astId": 590,
        "contract": "src/TokenSale.sol:TokenSale",
        "label": "_initializing",
        "offset": 1,
        "slot": "1",
        "type": "t_bool"
      },
      {
        "astId": 3618,
        "contract": "src/TokenSale.sol:TokenSale",
        "label": "payee",
        "offset": 2,
        "slot": "1",
        "type": "t_address"
      },
      {
        "astId": 3620,
        "contract": "src/TokenSale.sol:TokenSale",
        "label": "soldToken",
        "offset": 0,
        "slot": "2",
        "type": "t_address"
      },
      {
        "astId": 3622,
        "contract": "src/TokenSale.sol:TokenSale",
        "label": "salePrice_",
        "offset": 0,
        "slot": "3",
        "type": "t_uint256"
      },
      {
        "astId": 3624,
        "contract": "src/TokenSale.sol:TokenSale",
        "label": "issueCount",
        "offset": 0,
        "slot": "4",
        "type": "t_uint256"
      },
      {
        "astId": 3626,
        "contract": "src/TokenSale.sol:TokenSale",
        "label": "maxCount",
        "offset": 0,
        "slot": "5",
        "type": "t_uint256"
      },
      {
        "astId": 3628,
        "contract": "src/TokenSale.sol:TokenSale",
        "label": "vipReserve",
        "offset": 0,
        "slot": "6",
        "type": "t_uint256"
      },
      {
        "astId": 3630,
        "contract": "src/TokenSale.sol:TokenSale",
        "label": "vipIssued",
        "offset": 0,
        "slot": "7",
        "type": "t_uint256"
      },
      {
        "astId": 3634,
        "contract": "src/TokenSale.sol:TokenSale",
        "label": "_purchasers",
        "offset": 0,
        "slot": "8",
        "type": "t_array(t_struct(TokenMinting)3422_storage)dyn_storage"
      },
      {
        "astId": 3638,
        "contract": "src/TokenSale.sol:TokenSale",
        "label": "_mintees",
        "offset": 0,
        "slot": "9",
        "type": "t_array(t_struct(TokenMinting)3422_storage)dyn_storage"
      },
      {
        "astId": 3640,
        "contract": "src/TokenSale.sol:TokenSale",
        "label": "_partner",
        "offset": 0,
        "slot": "10",
        "type": "t_address"
      },
      {
        "astId": 3642,
        "contract": "src/TokenSale.sol:TokenSale",
        "label": "_permill",
        "offset": 0,
        "slot": "11",
        "type": "t_uint256"
      },
      {
        "astId": 3644,
        "contract": "src/TokenSale.sol:TokenSale",
        "label": "_openState",
        "offset": 0,
        "slot": "12",
        "type": "t_bool"
      }
    ],
    "types": {
      "t_address": {
        "encoding": "inplace",
        "label": "address",
        "numberOfBytes": "20"
      },
      "t_array(t_struct(TokenMinting)3422_storage)dyn_storage": {
        "base": "t_struct(TokenMinting)3422_storage",
        "encoding": "dynamic_array",
        "label": "struct ITokenSale.TokenMinting[]",
        "numberOfBytes": "32"
      },
      "t_bool": {
        "encoding": "inplace",
        "label": "bool",
        "numberOfBytes": "1"
      },
      "t_mapping(t_address,t_bool)": {
        "encoding": "mapping",
        "key": "t_address",
        "label": "mapping(address => bool)",
        "numberOfBytes": "32",
        "value": "t_bool"
      },
      "t_struct(TokenMinting)3422_storage": {
        "encoding": "inplace",
        "label": "struct ITokenSale.TokenMinting",
        "members": [
          {
            "astId": 3419,
            "contract": "src/TokenSale.sol:TokenSale",
            "label": "recipient",
            "offset": 0,
            "slot": "0",
            "type": "t_address"
          },
          {
            "astId": 3421,
            "contract": "src/TokenSale.sol:TokenSale",
            "label": "tokenHash",
            "offset": 0,
            "slot": "1",
            "type": "t_uint256"
          }
        ],
        "numberOfBytes": "64"
      },
      "t_uint256": {
        "encoding": "inplace",
        "label": "uint256",
        "numberOfBytes": "32"
      }
    }
  }
}