{
  "address": "0xc5AFB9F659B149A20D2171daa1E45DA19Fc88ccD",
  "abi": [
    {
      "inputs": [
        {
          "internalType": "string",
          "name": "name",
          "type": "string"
        },
        {
          "internalType": "string",
          "name": "symbol",
          "type": "string"
        },
        {
          "internalType": "uint256",
          "name": "_mintingMax",
          "type": "uint256"
        },
        {
          "internalType": "string",
          "name": "_uri",
          "type": "string"
        },
        {
          "internalType": "address",
          "name": "_owner",
          "type": "address"
        },
        {
          "internalType": "address",
          "name": "imx",
          "type": "address"
        }
      ],
      "stateMutability": "nonpayable",
      "type": "constructor"
    },
    {
      "anonymous": false,
      "inputs": [
        {
          "indexed": true,
          "internalType": "address",
          "name": "owner",
          "type": "address"
        },
        {
          "indexed": true,
          "internalType": "address",
          "name": "approved",
          "type": "address"
        },
        {
          "indexed": true,
          "internalType": "uint256",
          "name": "tokenId",
          "type": "uint256"
        }
      ],
      "name": "Approval",
      "type": "event"
    },
    {
      "anonymous": false,
      "inputs": [
        {
          "indexed": true,
          "internalType": "address",
          "name": "owner",
          "type": "address"
        },
        {
          "indexed": true,
          "internalType": "address",
          "name": "operator",
          "type": "address"
        },
        {
          "indexed": false,
          "internalType": "bool",
          "name": "approved",
          "type": "bool"
        }
      ],
      "name": "ApprovalForAll",
      "type": "event"
    },
    {
      "anonymous": false,
      "inputs": [
        {
          "indexed": false,
          "internalType": "address",
          "name": "to",
          "type": "address"
        },
        {
          "indexed": false,
          "internalType": "uint256",
          "name": "id",
          "type": "uint256"
        },
        {
          "indexed": false,
          "internalType": "bytes",
          "name": "blueprint",
          "type": "bytes"
        }
      ],
      "name": "AssetMinted",
      "type": "event"
    },
    {
      "anonymous": false,
      "inputs": [
        {
          "indexed": true,
          "internalType": "address",
          "name": "previousOwner",
          "type": "address"
        },
        {
          "indexed": true,
          "internalType": "address",
          "name": "newOwner",
          "type": "address"
        }
      ],
      "name": "OwnershipTransferred",
      "type": "event"
    },
    {
      "anonymous": false,
      "inputs": [
        {
          "indexed": true,
          "internalType": "address",
          "name": "from",
          "type": "address"
        },
        {
          "indexed": true,
          "internalType": "address",
          "name": "to",
          "type": "address"
        },
        {
          "indexed": true,
          "internalType": "uint256",
          "name": "tokenId",
          "type": "uint256"
        }
      ],
      "name": "Transfer",
      "type": "event"
    },
    {
      "inputs": [],
      "name": "_totalSupply",
      "outputs": [
        {
          "internalType": "uint256",
          "name": "totalSupply",
          "type": "uint256"
        }
      ],
      "stateMutability": "view",
      "type": "function"
    },
    {
      "inputs": [],
      "name": "allTokenHashes",
      "outputs": [
        {
          "internalType": "uint256[]",
          "name": "",
          "type": "uint256[]"
        }
      ],
      "stateMutability": "view",
      "type": "function"
    },
    {
      "inputs": [
        {
          "internalType": "address",
          "name": "to",
          "type": "address"
        },
        {
          "internalType": "uint256",
          "name": "tokenId",
          "type": "uint256"
        }
      ],
      "name": "approve",
      "outputs": [],
      "stateMutability": "nonpayable",
      "type": "function"
    },
    {
      "inputs": [
        {
          "internalType": "address",
          "name": "owner",
          "type": "address"
        }
      ],
      "name": "balanceOf",
      "outputs": [
        {
          "internalType": "uint256",
          "name": "",
          "type": "uint256"
        }
      ],
      "stateMutability": "view",
      "type": "function"
    },
    {
      "inputs": [],
      "name": "baseTokenURI",
      "outputs": [
        {
          "internalType": "string",
          "name": "baseUri",
          "type": "string"
        }
      ],
      "stateMutability": "view",
      "type": "function"
    },
    {
      "inputs": [
        {
          "internalType": "uint256",
          "name": "",
          "type": "uint256"
        }
      ],
      "name": "blueprints",
      "outputs": [
        {
          "internalType": "bytes",
          "name": "",
          "type": "bytes"
        }
      ],
      "stateMutability": "view",
      "type": "function"
    },
    {
      "inputs": [
        {
          "internalType": "uint256",
          "name": "tokenId",
          "type": "uint256"
        }
      ],
      "name": "getApproved",
      "outputs": [
        {
          "internalType": "address",
          "name": "",
          "type": "address"
        }
      ],
      "stateMutability": "view",
      "type": "function"
    },
    {
      "inputs": [
        {
          "internalType": "uint256",
          "name": "_id",
          "type": "uint256"
        }
      ],
      "name": "getFee",
      "outputs": [
        {
          "internalType": "uint256",
          "name": "fee",
          "type": "uint256"
        }
      ],
      "stateMutability": "view",
      "type": "function"
    },
    {
      "inputs": [],
      "name": "getMinter",
      "outputs": [
        {
          "internalType": "address",
          "name": "",
          "type": "address"
        }
      ],
      "stateMutability": "view",
      "type": "function"
    },
    {
      "inputs": [],
      "name": "imx",
      "outputs": [
        {
          "internalType": "address",
          "name": "",
          "type": "address"
        }
      ],
      "stateMutability": "view",
      "type": "function"
    },
    {
      "inputs": [
        {
          "internalType": "address",
          "name": "owner",
          "type": "address"
        },
        {
          "internalType": "address",
          "name": "operator",
          "type": "address"
        }
      ],
      "name": "isApprovedForAll",
      "outputs": [
        {
          "internalType": "bool",
          "name": "",
          "type": "bool"
        }
      ],
      "stateMutability": "view",
      "type": "function"
    },
    {
      "inputs": [
        {
          "internalType": "address",
          "name": "receiver",
          "type": "address"
        },
        {
          "internalType": "uint256",
          "name": "tokenHash",
          "type": "uint256"
        }
      ],
      "name": "mint",
      "outputs": [],
      "stateMutability": "nonpayable",
      "type": "function"
    },
    {
      "inputs": [
        {
          "internalType": "address",
          "name": "user",
          "type": "address"
        },
        {
          "internalType": "uint256",
          "name": "quantity",
          "type": "uint256"
        },
        {
          "internalType": "bytes",
          "name": "mintingBlob",
          "type": "bytes"
        }
      ],
      "name": "mintFor",
      "outputs": [],
      "stateMutability": "nonpayable",
      "type": "function"
    },
    {
      "inputs": [],
      "name": "name",
      "outputs": [
        {
          "internalType": "string",
          "name": "",
          "type": "string"
        }
      ],
      "stateMutability": "view",
      "type": "function"
    },
    {
      "inputs": [],
      "name": "owner",
      "outputs": [
        {
          "internalType": "address",
          "name": "",
          "type": "address"
        }
      ],
      "stateMutability": "view",
      "type": "function"
    },
    {
      "inputs": [
        {
          "internalType": "uint256",
          "name": "tokenId",
          "type": "uint256"
        }
      ],
      "name": "ownerOf",
      "outputs": [
        {
          "internalType": "address",
          "name": "",
          "type": "address"
        }
      ],
      "stateMutability": "view",
      "type": "function"
    },
    {
      "inputs": [
        {
          "internalType": "address",
          "name": "owner",
          "type": "address"
        },
        {
          "internalType": "uint256[]",
          "name": "tokenIds",
          "type": "uint256[]"
        }
      ],
      "name": "owns",
      "outputs": [
        {
          "internalType": "bool[]",
          "name": "_result",
          "type": "bool[]"
        }
      ],
      "stateMutability": "view",
      "type": "function"
    },
    {
      "inputs": [],
      "name": "proxyRegistryAddress",
      "outputs": [
        {
          "internalType": "address",
          "name": "",
          "type": "address"
        }
      ],
      "stateMutability": "view",
      "type": "function"
    },
    {
      "inputs": [],
      "name": "renounceOwnership",
      "outputs": [],
      "stateMutability": "nonpayable",
      "type": "function"
    },
    {
      "inputs": [
        {
          "internalType": "uint256",
          "name": "_tokenId",
          "type": "uint256"
        },
        {
          "internalType": "uint256",
          "name": "_salePrice",
          "type": "uint256"
        }
      ],
      "name": "royaltyInfo",
      "outputs": [
        {
          "internalType": "address",
          "name": "receiver",
          "type": "address"
        },
        {
          "internalType": "uint256",
          "name": "royaltyAmount",
          "type": "uint256"
        }
      ],
      "stateMutability": "view",
      "type": "function"
    },
    {
      "inputs": [
        {
          "internalType": "uint256",
          "name": "_id",
          "type": "uint256"
        }
      ],
      "name": "royaltyOwner",
      "outputs": [
        {
          "internalType": "address",
          "name": "owner",
          "type": "address"
        }
      ],
      "stateMutability": "view",
      "type": "function"
    },
    {
      "inputs": [
        {
          "internalType": "address",
          "name": "from",
          "type": "address"
        },
        {
          "internalType": "address",
          "name": "to",
          "type": "address"
        },
        {
          "internalType": "uint256",
          "name": "tokenId",
          "type": "uint256"
        }
      ],
      "name": "safeTransferFrom",
      "outputs": [],
      "stateMutability": "nonpayable",
      "type": "function"
    },
    {
      "inputs": [
        {
          "internalType": "address",
          "name": "from",
          "type": "address"
        },
        {
          "internalType": "address",
          "name": "to",
          "type": "address"
        },
        {
          "internalType": "uint256",
          "name": "tokenId",
          "type": "uint256"
        },
        {
          "internalType": "bytes",
          "name": "_data",
          "type": "bytes"
        }
      ],
      "name": "safeTransferFrom",
      "outputs": [],
      "stateMutability": "nonpayable",
      "type": "function"
    },
    {
      "inputs": [
        {
          "internalType": "address",
          "name": "operator",
          "type": "address"
        },
        {
          "internalType": "bool",
          "name": "approved",
          "type": "bool"
        }
      ],
      "name": "setApprovalForAll",
      "outputs": [],
      "stateMutability": "nonpayable",
      "type": "function"
    },
    {
      "inputs": [
        {
          "internalType": "string",
          "name": "_baseU",
          "type": "string"
        }
      ],
      "name": "setBaseTokenURI",
      "outputs": [],
      "stateMutability": "nonpayable",
      "type": "function"
    },
    {
      "inputs": [
        {
          "internalType": "uint256",
          "name": "_id",
          "type": "uint256"
        },
        {
          "internalType": "uint256",
          "name": "_fee",
          "type": "uint256"
        }
      ],
      "name": "setFee",
      "outputs": [],
      "stateMutability": "nonpayable",
      "type": "function"
    },
    {
      "inputs": [
        {
          "internalType": "address",
          "name": "minter_",
          "type": "address"
        }
      ],
      "name": "setMinter",
      "outputs": [],
      "stateMutability": "nonpayable",
      "type": "function"
    },
    {
      "inputs": [
        {
          "internalType": "address",
          "name": "valu",
          "type": "address"
        }
      ],
      "name": "setProxyRegistryAddress",
      "outputs": [],
      "stateMutability": "nonpayable",
      "type": "function"
    },
    {
      "inputs": [
        {
          "internalType": "bytes4",
          "name": "interfaceId",
          "type": "bytes4"
        }
      ],
      "name": "supportsInterface",
      "outputs": [
        {
          "internalType": "bool",
          "name": "supportsIface",
          "type": "bool"
        }
      ],
      "stateMutability": "view",
      "type": "function"
    },
    {
      "inputs": [],
      "name": "symbol",
      "outputs": [
        {
          "internalType": "string",
          "name": "",
          "type": "string"
        }
      ],
      "stateMutability": "view",
      "type": "function"
    },
    {
      "inputs": [
        {
          "internalType": "uint256",
          "name": "_tokenId",
          "type": "uint256"
        }
      ],
      "name": "tokenURI",
      "outputs": [
        {
          "internalType": "string",
          "name": "_tokenUri",
          "type": "string"
        }
      ],
      "stateMutability": "view",
      "type": "function"
    },
    {
      "inputs": [
        {
          "internalType": "address",
          "name": "from",
          "type": "address"
        },
        {
          "internalType": "address",
          "name": "to",
          "type": "address"
        },
        {
          "internalType": "uint256",
          "name": "tokenId",
          "type": "uint256"
        }
      ],
      "name": "transferFrom",
      "outputs": [],
      "stateMutability": "nonpayable",
      "type": "function"
    },
    {
      "inputs": [
        {
          "internalType": "uint256",
          "name": "_id",
          "type": "uint256"
        },
        {
          "internalType": "address",
          "name": "_newOwner",
          "type": "address"
        }
      ],
      "name": "transferOwnership",
      "outputs": [],
      "stateMutability": "nonpayable",
      "type": "function"
    },
    {
      "inputs": [
        {
          "internalType": "address",
          "name": "newOwner",
          "type": "address"
        }
      ],
      "name": "transferOwnership",
      "outputs": [],
      "stateMutability": "nonpayable",
      "type": "function"
    }
  ],
  "transactionHash": "0xeb94a1f3faeb0ec879aac12a1ce29bd78fb58285ec186a4578c61414b38e4664",
  "args": [
    "Scary Devils",
    "DEVILS",
    9999,
    "https://scarydevils.nft/",
    "0xE5E82ae456c04Ad0879785B4f678A4Fcace12AAf",
    "0x4527be8f31e2ebfbef4fcaddb5a17447b27d2aef"
  ],
  "solcInputHash": "21cb6fc5229af78c1b03b2428276b37d",
  "bytecode": "0x60806040523480156200001157600080fd5b5060405162003089380380620030898339810160408190526200003491620003ce565b8181878781600090805190602001906200005092919062000258565b5080516200006690600190602084019062000258565b505050620000836200007d6200013160201b60201c565b62000135565b600980546001600160a01b0319166001600160a01b03838116919091179091558216620000f75760405162461bcd60e51b815260206004820152601760248201527f4f776e6572206d757374206e6f7420626520656d70747900000000000000000060448201526064015b60405180910390fd5b620001028262000187565b5050600e84905582516200011e90600b90602086019062000258565b50506001600f5550620004dc9350505050565b3390565b600880546001600160a01b038381166001600160a01b0319831681179093556040519116919082907f8be0079c531659141344cd1fd0a4f28419497f9722a3daafe3b4186f6b6457e090600090a35050565b6008546001600160a01b03163314620001e35760405162461bcd60e51b815260206004820181905260248201527f4f776e61626c653a2063616c6c6572206973206e6f7420746865206f776e65726044820152606401620000ee565b6001600160a01b0381166200024a5760405162461bcd60e51b815260206004820152602660248201527f4f776e61626c653a206e6577206f776e657220697320746865207a65726f206160448201526564647265737360d01b6064820152608401620000ee565b620002558162000135565b50565b828054620002669062000489565b90600052602060002090601f0160209004810192826200028a5760008555620002d5565b82601f10620002a557805160ff1916838001178555620002d5565b82800160010185558215620002d5579182015b82811115620002d5578251825591602001919060010190620002b8565b50620002e3929150620002e7565b5090565b5b80821115620002e35760008155600101620002e8565b80516001600160a01b03811681146200031657600080fd5b919050565b600082601f8301126200032c578081fd5b81516001600160401b0380821115620003495762000349620004c6565b604051601f8301601f19908116603f01168101908282118183101715620003745762000374620004c6565b8160405283815260209250868385880101111562000390578485fd5b8491505b83821015620003b3578582018301518183018401529082019062000394565b83821115620003c457848385830101525b9695505050505050565b60008060008060008060c08789031215620003e7578182fd5b86516001600160401b0380821115620003fe578384fd5b6200040c8a838b016200031b565b9750602089015191508082111562000422578384fd5b620004308a838b016200031b565b96506040890151955060608901519150808211156200044d578384fd5b506200045c89828a016200031b565b9350506200046d60808801620002fe565b91506200047d60a08801620002fe565b90509295509295509295565b600181811c908216806200049e57607f821691505b60208210811415620004c057634e487b7160e01b600052602260045260246000fd5b50919050565b634e487b7160e01b600052604160045260246000fd5b612b9d80620004ec6000396000f3fe608060405234801561001057600080fd5b50600436106102265760003560e01c806370a082311161012a578063c87b56dd116100bd578063e985e9c51161008c578063f366751711610071578063f3667517146104cb578063fca3b5aa146104dc578063fcee45f4146104ef57600080fd5b8063e985e9c5146104a5578063f2fde38b146104b857600080fd5b8063c87b56dd14610466578063cd7c032614610479578063d26ea6c01461048a578063d547cfb71461049d57600080fd5b806395d89b41116100f957806395d89b4114610418578063a22cb46514610420578063b151683114610433578063b88d4fde1461045357600080fd5b806370a08231146103d7578063715018a6146103ea5780638a86993b146103f25780638da5cb5b1461040757600080fd5b806329507f73116101bd57806340c10f191161018c57806352f7c9881161017157806352f7c9881461039e5780636352211e146103b157806366bf33be146103c457600080fd5b806340c10f191461037857806342842e0e1461038b57600080fd5b806329507f731461030a5780632a55205a1461031d57806330176e131461034f5780633eaaf86b1461036257600080fd5b80630f08025f116101f95780630f08025f146102a857806319ee6e3f146102bb57806323b872dd146102ce57806326fc0209146102e157600080fd5b806301ffc9a71461022b57806306fdde0314610253578063081812fc14610268578063095ea7b314610293575b600080fd5b61023e6102393660046126cf565b61050f565b60405190151581526020015b60405180910390f35b61025b610553565b60405161024a9190612996565b61027b610276366004612769565b6105e5565b6040516001600160a01b03909116815260200161024a565b6102a66102a1366004612620565b610690565b005b60095461027b906001600160a01b031681565b6102a66102c936600461264b565b6107c2565b6102a66102dc366004612475565b610911565b61027b6102ef366004612769565b6000908152600660205260409020546001600160a01b031690565b6102a6610318366004612781565b610998565b61033061032b3660046127a5565b610ac5565b604080516001600160a01b03909316835260208301919091520161024a565b6102a661035d366004612723565b610bd9565b61036a610c4a565b60405190815260200161024a565b6102a6610386366004612620565b610c60565b6102a6610399366004612475565b610d96565b6102a66103ac3660046127a5565b610db1565b61027b6103bf366004612769565b610e9f565b61025b6103d2366004612769565b610f2a565b61036a6103e5366004612421565b610fc4565b6102a661105e565b6103fa6110c4565b60405161024a919061295e565b6008546001600160a01b031661027b565b61025b61111b565b6102a661042e3660046125ef565b61112a565b610446610441366004612532565b6111ef565b60405161024a9190612918565b6102a66104613660046124b5565b6112de565b61025b610474366004612769565b61136c565b600c546001600160a01b031661027b565b6102a6610498366004612421565b6113a0565b61025b611429565b61023e6104b336600461243d565b611438565b6102a66104c6366004612421565b611533565b600d546001600160a01b031661027b565b6102a66104ea366004612421565b611615565b61036a6104fd366004612769565b60009081526007602052604090205490565b60006001600160e01b031982167f2a55205a00000000000000000000000000000000000000000000000000000000148061054d575061054d8261169d565b92915050565b60606000805461056290612a90565b80601f016020809104026020016040519081016040528092919081815260200182805461058e90612a90565b80156105db5780601f106105b0576101008083540402835291602001916105db565b820191906000526020600020905b8154815290600101906020018083116105be57829003601f168201915b5050505050905090565b6000818152600260205260408120546001600160a01b03166106745760405162461bcd60e51b815260206004820152602c60248201527f4552433732313a20617070726f76656420717565727920666f72206e6f6e657860448201527f697374656e7420746f6b656e000000000000000000000000000000000000000060648201526084015b60405180910390fd5b506000908152600460205260409020546001600160a01b031690565b600061069b82610e9f565b9050806001600160a01b0316836001600160a01b031614156107255760405162461bcd60e51b815260206004820152602160248201527f4552433732313a20617070726f76616c20746f2063757272656e74206f776e6560448201527f7200000000000000000000000000000000000000000000000000000000000000606482015260840161066b565b336001600160a01b038216148061074157506107418133611438565b6107b35760405162461bcd60e51b815260206004820152603860248201527f4552433732313a20617070726f76652063616c6c6572206973206e6f74206f7760448201527f6e6572206e6f7220617070726f76656420666f7220616c6c0000000000000000606482015260840161066b565b6107bd83836116db565b505050565b6009546001600160a01b031633146108425760405162461bcd60e51b815260206004820152602260248201527f46756e6374696f6e2063616e206f6e6c792062652063616c6c6564206279204960448201527f4d58000000000000000000000000000000000000000000000000000000000000606482015260840161066b565b826001146108925760405162461bcd60e51b815260206004820152601a60248201527f4d696e7461626c653a20696e76616c6964207175616e74697479000000000000604482015260640161066b565b60008061089f8484611756565b915091506108ae868383611936565b6000828152600a6020908152604090912082516108cd92840190612330565b507f31e594f6b36b98ec520a91cbbba7b8724b1cec27393f86d8f0f6aa6084db0aaf868383604051610901939291906128f0565b60405180910390a1505050505050565b61091b3382611940565b61098d5760405162461bcd60e51b815260206004820152603160248201527f4552433732313a207472616e736665722063616c6c6572206973206e6f74206f60448201527f776e6572206e6f7220617070726f766564000000000000000000000000000000606482015260840161066b565b6107bd838383611a28565b60008281526006602052604090205482906001600160a01b03163314610a265760405162461bcd60e51b815260206004820152602a60248201527f4f6e6c7920746865206f776e65722063616e206d6f646966792074686520726f60448201527f79616c7479206665657300000000000000000000000000000000000000000000606482015260840161066b565b8215801590610a3d57506001600160a01b03821615155b610a895760405162461bcd60e51b815260206004820152601d60248201527f496e76616c696420746f6b656e206964206f72206e6577206f776e6572000000604482015260640161066b565b50600091825260066020526040909120805473ffffffffffffffffffffffffffffffffffffffff19166001600160a01b03909216919091179055565b60008060008311610b3e5760405162461bcd60e51b815260206004820152602160248201527f53616c65207072696365206d7573742062652067726561746572207468616e2060448201527f3000000000000000000000000000000000000000000000000000000000000000606482015260840161066b565b60008411610b8e5760405162461bcd60e51b815260206004820152601660248201527f546f6b656e204964206d7573742062652076616c696400000000000000000000604482015260640161066b565b6000848152600660209081526040808320546007909252909120546001600160a01b0390911692508390610bc690620f424090612a1a565b610bd09190612a2e565b90509250929050565b6008546001600160a01b03163314610c335760405162461bcd60e51b815260206004820181905260248201527f4f776e61626c653a2063616c6c6572206973206e6f7420746865206f776e6572604482015260640161066b565b8051610c4690600b906020840190612330565b5050565b60006001600f54610c5b9190612a4d565b905090565b600d546001600160a01b03163314610cba5760405162461bcd60e51b815260206004820152601f60248201527f4f6e6c7920746865206d696e7465722063616e206d696e7420746f6b656e7300604482015260640161066b565b600e54610cc5610c4a565b1115610d135760405162461bcd60e51b815260206004820152601360248201527f4d696e74696e67206d6178207265616368656400000000000000000000000000604482015260640161066b565b6000818152600660205260408120805473ffffffffffffffffffffffffffffffffffffffff19166001600160a01b038516179055601080546001810182559082527f1b6847dc741a1b0cd08d278845f9d819d87b734759afb55fe2de5cb82a9ae67201829055600f805491610d8783612acb565b9190505550610c468282611c02565b6107bd838383604051806020016040528060008152506112de565b60008281526006602052604090205482906001600160a01b03163314610e3f5760405162461bcd60e51b815260206004820152602a60248201527f4f6e6c7920746865206f776e65722063616e206d6f646966792074686520726f60448201527f79616c7479206665657300000000000000000000000000000000000000000000606482015260840161066b565b82610e8c5760405162461bcd60e51b815260206004820152601260248201527f4665652063616e6e6f74206265207a65726f0000000000000000000000000000604482015260640161066b565b5060009182526007602052604090912055565b6000818152600260205260408120546001600160a01b03168061054d5760405162461bcd60e51b815260206004820152602960248201527f4552433732313a206f776e657220717565727920666f72206e6f6e657869737460448201527f656e7420746f6b656e0000000000000000000000000000000000000000000000606482015260840161066b565b600a6020526000908152604090208054610f4390612a90565b80601f0160208091040260200160405190810160405280929190818152602001828054610f6f90612a90565b8015610fbc5780601f10610f9157610100808354040283529160200191610fbc565b820191906000526020600020905b815481529060010190602001808311610f9f57829003601f168201915b505050505081565b60006001600160a01b0382166110425760405162461bcd60e51b815260206004820152602a60248201527f4552433732313a2062616c616e636520717565727920666f7220746865207a6560448201527f726f206164647265737300000000000000000000000000000000000000000000606482015260840161066b565b506001600160a01b031660009081526003602052604090205490565b6008546001600160a01b031633146110b85760405162461bcd60e51b815260206004820181905260248201527f4f776e61626c653a2063616c6c6572206973206e6f7420746865206f776e6572604482015260640161066b565b6110c26000611d51565b565b606060108054806020026020016040519081016040528092919081815260200182805480156105db57602002820191906000526020600020905b8154815260200190600101908083116110fe575050505050905090565b60606001805461056290612a90565b6001600160a01b0382163314156111835760405162461bcd60e51b815260206004820152601960248201527f4552433732313a20617070726f766520746f2063616c6c657200000000000000604482015260640161066b565b3360008181526005602090815260408083206001600160a01b03871680855290835292819020805460ff191686151590811790915590519081529192917f17307eab39ab6107e8899845ad3d59bd9653f200f220920489ca2b5937696c31910160405180910390a35050565b6060815167ffffffffffffffff81111561121957634e487b7160e01b600052604160045260246000fd5b604051908082528060200260200182016040528015611242578160200160208202803683370190505b50905060005b82518110156112d757836001600160a01b031661128b84838151811061127e57634e487b7160e01b600052603260045260246000fd5b6020026020010151610e9f565b6001600160a01b0316148282815181106112b557634e487b7160e01b600052603260045260246000fd5b91151560209283029190910190910152806112cf81612acb565b915050611248565b5092915050565b6112e83383611940565b61135a5760405162461bcd60e51b815260206004820152603160248201527f4552433732313a207472616e736665722063616c6c6572206973206e6f74206f60448201527f776e6572206e6f7220617070726f766564000000000000000000000000000000606482015260840161066b565b61136684848484611db0565b50505050565b6060600b61137983611e39565b60405160200161138a92919061280e565b6040516020818303038152906040529050919050565b6008546001600160a01b031633146113fa5760405162461bcd60e51b815260206004820181905260248201527f4f776e61626c653a2063616c6c6572206973206e6f7420746865206f776e6572604482015260640161066b565b600c805473ffffffffffffffffffffffffffffffffffffffff19166001600160a01b0392909216919091179055565b6060600b805461056290612a90565b600c546000906001600160a01b03161561150257600c546040517fc45527910000000000000000000000000000000000000000000000000000000081526001600160a01b03858116600483015291821691841690829063c45527919060240160206040518083038186803b1580156114af57600080fd5b505afa1580156114c3573d6000803e3d6000fd5b505050506040513d601f19601f820116820180604052508101906114e79190612707565b6001600160a01b0316141561150057600191505061054d565b505b6001600160a01b0380841660009081526005602090815260408083209386168352929052205460ff165b9392505050565b6008546001600160a01b0316331461158d5760405162461bcd60e51b815260206004820181905260248201527f4f776e61626c653a2063616c6c6572206973206e6f7420746865206f776e6572604482015260640161066b565b6001600160a01b0381166116095760405162461bcd60e51b815260206004820152602660248201527f4f776e61626c653a206e6577206f776e657220697320746865207a65726f206160448201527f6464726573730000000000000000000000000000000000000000000000000000606482015260840161066b565b61161281611d51565b50565b600d546001600160a01b03161561166e5760405162461bcd60e51b815260206004820152600960248201527f696d6d757461626c650000000000000000000000000000000000000000000000604482015260640161066b565b600d805473ffffffffffffffffffffffffffffffffffffffff19166001600160a01b0392909216919091179055565b60006001600160e01b031982167f2a55205a00000000000000000000000000000000000000000000000000000000148061054d575061054d82611f87565b6000818152600460205260409020805473ffffffffffffffffffffffffffffffffffffffff19166001600160a01b038416908117909155819061171d82610e9f565b6001600160a01b03167f8c5be1e5ebec7d5bd14f71427d1e84f3dd0314c0f7b2291e5b200ac8c7c3b92560405160405180910390a45050565b6000606060006117d085858080601f016020809104026020016040519081016040528093929190818152602001838380828437600092018290525060408051808201909152600181527f3a000000000000000000000000000000000000000000000000000000000000006020820152935091506120229050565b905060008112156118235760405162461bcd60e51b815260206004820152601460248201527f536570617261746f72206d757374206578697374000000000000000000000000604482015260640161066b565b600061187d866001876118368287612a4d565b92611843939291906129da565b8080601f01602080910402602001604051908101604052809392919081815260200183838082843760009201919091525061211492505050565b90506000600361188d8488612a4d565b6118979190612a4d565b9050806118bb5781604051806020016040528060008152509450945050505061192f565b36600088886118cb876002612a02565b906118d760018c612a4d565b926118e4939291906129da565b9150915083828281818080601f016020809104026020016040519081016040528093929190818152602001838380828437600092019190915250959c50919a50505050505050505050505b9250929050565b6107bd8383611c02565b6000818152600260205260408120546001600160a01b03166119ca5760405162461bcd60e51b815260206004820152602c60248201527f4552433732313a206f70657261746f7220717565727920666f72206e6f6e657860448201527f697374656e7420746f6b656e0000000000000000000000000000000000000000606482015260840161066b565b60006119d583610e9f565b9050806001600160a01b0316846001600160a01b03161480611a105750836001600160a01b0316611a05846105e5565b6001600160a01b0316145b80611a205750611a208185611438565b949350505050565b826001600160a01b0316611a3b82610e9f565b6001600160a01b031614611ab75760405162461bcd60e51b815260206004820152602960248201527f4552433732313a207472616e73666572206f6620746f6b656e2074686174206960448201527f73206e6f74206f776e0000000000000000000000000000000000000000000000606482015260840161066b565b6001600160a01b038216611b325760405162461bcd60e51b8152602060048201526024808201527f4552433732313a207472616e7366657220746f20746865207a65726f2061646460448201527f7265737300000000000000000000000000000000000000000000000000000000606482015260840161066b565b611b3d6000826116db565b6001600160a01b0383166000908152600360205260408120805460019290611b66908490612a4d565b90915550506001600160a01b0382166000908152600360205260408120805460019290611b94908490612a02565b9091555050600081815260026020526040808220805473ffffffffffffffffffffffffffffffffffffffff19166001600160a01b0386811691821790925591518493918716917fddf252ad1be2c89b69c2b068fc378daa952ba7f163c4a11628f55a4df523b3ef91a4505050565b6001600160a01b038216611c585760405162461bcd60e51b815260206004820181905260248201527f4552433732313a206d696e7420746f20746865207a65726f2061646472657373604482015260640161066b565b6000818152600260205260409020546001600160a01b031615611cbd5760405162461bcd60e51b815260206004820152601c60248201527f4552433732313a20746f6b656e20616c7265616479206d696e74656400000000604482015260640161066b565b6001600160a01b0382166000908152600360205260408120805460019290611ce6908490612a02565b9091555050600081815260026020526040808220805473ffffffffffffffffffffffffffffffffffffffff19166001600160a01b03861690811790915590518392907fddf252ad1be2c89b69c2b068fc378daa952ba7f163c4a11628f55a4df523b3ef908290a45050565b600880546001600160a01b0383811673ffffffffffffffffffffffffffffffffffffffff19831681179093556040519116919082907f8be0079c531659141344cd1fd0a4f28419497f9722a3daafe3b4186f6b6457e090600090a35050565b611dbb848484611a28565b611dc78484848461219b565b6113665760405162461bcd60e51b815260206004820152603260248201527f4552433732313a207472616e7366657220746f206e6f6e20455243373231526560448201527f63656976657220696d706c656d656e7465720000000000000000000000000000606482015260840161066b565b606081611e7957505060408051808201909152600181527f3000000000000000000000000000000000000000000000000000000000000000602082015290565b8160005b8115611ea35780611e8d81612acb565b9150611e9c9050600a83612a1a565b9150611e7d565b60008167ffffffffffffffff811115611ecc57634e487b7160e01b600052604160045260246000fd5b6040519080825280601f01601f191660200182016040528015611ef6576020820181803683370190505b5090505b8415611a2057611f0b600183612a4d565b9150611f18600a86612ae6565b611f23906030612a02565b60f81b818381518110611f4657634e487b7160e01b600052603260045260246000fd5b60200101907effffffffffffffffffffffffffffffffffffffffffffffffffffffffffffff1916908160001a905350611f80600a86612a1a565b9450611efa565b60006001600160e01b031982167f80ac58cd000000000000000000000000000000000000000000000000000000001480611fea57506001600160e01b031982167f5b5e139f00000000000000000000000000000000000000000000000000000000145b8061054d57507f01ffc9a7000000000000000000000000000000000000000000000000000000006001600160e01b031983161461054d565b8151600090839060011461204657634e487b7160e01b600052600160045260246000fd5b825b8551811015612107578160008151811061207257634e487b7160e01b600052603260045260246000fd5b602001015160f81c60f81b7effffffffffffffffffffffffffffffffffffffffffffffffffffffffffffff19168682815181106120bf57634e487b7160e01b600052603260045260246000fd5b01602001517fff000000000000000000000000000000000000000000000000000000000000001614156120f557915061152c9050565b806120ff81612acb565b915050612048565b5060001995945050505050565b600080805b83518110156112d757600084828151811061214457634e487b7160e01b600052603260045260246000fd5b016020015160f81c905060308110801590612160575060398111155b1561218857612170603082612a4d565b61217b84600a612a2e565b6121859190612a02565b92505b508061219381612acb565b915050612119565b60006001600160a01b0384163b15612325576040517f150b7a020000000000000000000000000000000000000000000000000000000081526001600160a01b0385169063150b7a02906121f89033908990889088906004016128b4565b602060405180830381600087803b15801561221257600080fd5b505af1925050508015612242575060408051601f3d908101601f1916820190925261223f918101906126eb565b60015b6122f2573d808015612270576040519150601f19603f3d011682016040523d82523d6000602084013e612275565b606091505b5080516122ea5760405162461bcd60e51b815260206004820152603260248201527f4552433732313a207472616e7366657220746f206e6f6e20455243373231526560448201527f63656976657220696d706c656d656e7465720000000000000000000000000000606482015260840161066b565b805181602001fd5b6001600160e01b0319167f150b7a0200000000000000000000000000000000000000000000000000000000149050611a20565b506001949350505050565b82805461233c90612a90565b90600052602060002090601f01602090048101928261235e57600085556123a4565b82601f1061237757805160ff19168380011785556123a4565b828001600101855582156123a4579182015b828111156123a4578251825591602001919060010190612389565b506123b09291506123b4565b5090565b5b808211156123b057600081556001016123b5565b600067ffffffffffffffff8311156123e3576123e3612b26565b6123f66020601f19601f860116016129a9565b905082815283838301111561240a57600080fd5b828260208301376000602084830101529392505050565b600060208284031215612432578081fd5b813561152c81612b3c565b6000806040838503121561244f578081fd5b823561245a81612b3c565b9150602083013561246a81612b3c565b809150509250929050565b600080600060608486031215612489578081fd5b833561249481612b3c565b925060208401356124a481612b3c565b929592945050506040919091013590565b600080600080608085870312156124ca578081fd5b84356124d581612b3c565b935060208501356124e581612b3c565b925060408501359150606085013567ffffffffffffffff811115612507578182fd5b8501601f81018713612517578182fd5b612526878235602084016123c9565b91505092959194509250565b60008060408385031215612544578182fd5b823561254f81612b3c565b915060208381013567ffffffffffffffff8082111561256c578384fd5b818601915086601f83011261257f578384fd5b81358181111561259157612591612b26565b8060051b91506125a28483016129a9565b8181528481019084860184860187018b10156125bc578788fd5b8795505b838610156125de5780358352600195909501949186019186016125c0565b508096505050505050509250929050565b60008060408385031215612601578182fd5b823561260c81612b3c565b91506020830135801515811461246a578182fd5b60008060408385031215612632578182fd5b823561263d81612b3c565b946020939093013593505050565b60008060008060608587031215612660578384fd5b843561266b81612b3c565b935060208501359250604085013567ffffffffffffffff8082111561268e578384fd5b818701915087601f8301126126a1578384fd5b8135818111156126af578485fd5b8860208285010111156126c0578485fd5b95989497505060200194505050565b6000602082840312156126e0578081fd5b813561152c81612b51565b6000602082840312156126fc578081fd5b815161152c81612b51565b600060208284031215612718578081fd5b815161152c81612b3c565b600060208284031215612734578081fd5b813567ffffffffffffffff81111561274a578182fd5b8201601f8101841361275a578182fd5b611a20848235602084016123c9565b60006020828403121561277a578081fd5b5035919050565b60008060408385031215612793578182fd5b82359150602083013561246a81612b3c565b600080604083850312156127b7578182fd5b50508035926020909101359150565b600081518084526127de816020860160208601612a64565b601f01601f19169290920160200192915050565b60008151612804818560208601612a64565b9290920192915050565b600080845482600182811c91508083168061282a57607f831692505b602080841082141561284a57634e487b7160e01b87526022600452602487fd5b81801561285e576001811461286f5761289b565b60ff1986168952848901965061289b565b60008b815260209020885b868110156128935781548b82015290850190830161287a565b505084890196505b5050505050506128ab81856127f2565b95945050505050565b60006001600160a01b038087168352808616602084015250836040830152608060608301526128e660808301846127c6565b9695505050505050565b6001600160a01b03841681528260208201526060604082015260006128ab60608301846127c6565b6020808252825182820181905260009190848201906040850190845b81811015612952578351151583529284019291840191600101612934565b50909695505050505050565b6020808252825182820181905260009190848201906040850190845b818110156129525783518352928401929184019160010161297a565b60208152600061152c60208301846127c6565b604051601f8201601f1916810167ffffffffffffffff811182821017156129d2576129d2612b26565b604052919050565b600080858511156129e9578182fd5b838611156129f5578182fd5b5050820193919092039150565b60008219821115612a1557612a15612afa565b500190565b600082612a2957612a29612b10565b500490565b6000816000190483118215151615612a4857612a48612afa565b500290565b600082821015612a5f57612a5f612afa565b500390565b60005b83811015612a7f578181015183820152602001612a67565b838111156113665750506000910152565b600181811c90821680612aa457607f821691505b60208210811415612ac557634e487b7160e01b600052602260045260246000fd5b50919050565b6000600019821415612adf57612adf612afa565b5060010190565b600082612af557612af5612b10565b500690565b634e487b7160e01b600052601160045260246000fd5b634e487b7160e01b600052601260045260246000fd5b634e487b7160e01b600052604160045260246000fd5b6001600160a01b038116811461161257600080fd5b6001600160e01b03198116811461161257600080fdfea2646970667358221220dc5273933b19e5e346cc377b680d48baec9e8a3a285081778741ec03e0857dde64736f6c63430008040033",
  "devdoc": {
    "details": "see  [EIP-20: Basic token standard]",
    "kind": "dev",
    "methods": {
      "_totalSupply()": {
        "details": "mint an NFT of the given id to the target address",
        "returns": {
          "totalSupply": "the total supply of the token"
        }
      },
      "approve(address,uint256)": {
        "details": "See {IERC721-approve}."
      },
      "balanceOf(address)": {
        "details": "See {IERC721-balanceOf}."
      },
      "baseTokenURI()": {
        "returns": {
          "baseUri": "- the base URI"
        }
      },
      "constructor": {
        "details": "Initializes the contract with the minter, the mintingMax and the total supply.",
        "params": {
          "_mintingMax": "the total number of tokens  to be minted",
          "_uri": "the base uri for the token",
          "name": "the token name",
          "symbol": "the token symbol"
        }
      },
      "getApproved(uint256)": {
        "details": "See {IERC721-getApproved}."
      },
      "getFee(uint256)": {
        "params": {
          "_id": "- id of the token hash "
        },
        "returns": {
          "fee": "- the fee"
        }
      },
      "getMinter()": {
        "details": "get the allowed minter"
      },
      "mint(address,uint256)": {
        "details": "mint an NFT of the given id to the target address",
        "params": {
          "receiver": "the tokenHash to mint them"
        }
      },
      "name()": {
        "details": "See {IERC721Metadata-name}."
      },
      "owner()": {
        "details": "Returns the address of the current owner."
      },
      "ownerOf(uint256)": {
        "details": "See {IERC721-ownerOf}."
      },
      "proxyRegistryAddress()": {
        "returns": {
          "_0": "baseUri - the base URI"
        }
      },
      "renounceOwnership()": {
        "details": "Leaves the contract without owner. It will not be possible to call `onlyOwner` functions anymore. Can only be called by the current owner. NOTE: Renouncing ownership will leave the contract without an owner, thereby removing any functionality that is only available to the owner."
      },
      "royaltyInfo(uint256,uint256)": {
        "details": "ERC2981 - return the receiver and royalty payment given the id and sale price",
        "params": {
          "_salePrice": "the price of the token",
          "_tokenId": "the id of the token"
        },
        "returns": {
          "receiver": "the receiver",
          "royaltyAmount": "the royalty payment"
        }
      },
      "royaltyOwner(uint256)": {
        "params": {
          "_id": "- id of the token hash "
        },
        "returns": {
          "owner": "- the royalty owner"
        }
      },
      "safeTransferFrom(address,address,uint256)": {
        "details": "See {IERC721-safeTransferFrom}."
      },
      "safeTransferFrom(address,address,uint256,bytes)": {
        "details": "See {IERC721-safeTransferFrom}."
      },
      "setApprovalForAll(address,bool)": {
        "details": "See {IERC721-setApprovalForAll}."
      },
      "setFee(uint256,uint256)": {
        "params": {
          "_fee": "- the fee permilliage to set",
          "_id": "- id of the token hash "
        }
      },
      "setMinter(address)": {
        "details": "set the allowed minter"
      },
      "supportsInterface(bytes4)": {
        "params": {
          "interfaceId": "- the interface id to check"
        },
        "returns": {
          "supportsIface": "- whether the interface is supported"
        }
      },
      "symbol()": {
        "details": "See {IERC721Metadata-symbol}."
      },
      "tokenURI(uint256)": {
        "params": {
          "_tokenId": "- the interface id to check"
        },
        "returns": {
          "_tokenUri": "- the token  URI"
        }
      },
      "transferFrom(address,address,uint256)": {
        "details": "See {IERC721-transferFrom}."
      },
      "transferOwnership(address)": {
        "details": "Transfers ownership of the contract to a new account (`newOwner`). Can only be called by the current owner."
      },
      "transferOwnership(uint256,address)": {
        "params": {
          "_id": "- id of the token hash ",
          "_newOwner": "- address of the new owners "
        }
      }
    },
    "title": "ERC721 contract for VTail.com",
    "version": 1
  },
  "userdoc": {
    "kind": "user",
    "methods": {
      "baseTokenURI()": {
        "notice": "the base token URI"
      },
      "getFee(uint256)": {
        "notice": "get the fee permilliage for a token hash"
      },
      "isApprovedForAll(address,address)": {
        "notice": "Override isApprovedForAll to whitelist user's OpenSea proxy accounts to enable gas-less listings."
      },
      "proxyRegistryAddress()": {
        "notice": "the base token URI"
      },
      "royaltyOwner(uint256)": {
        "notice": "get the royalty receiver for a token hash"
      },
      "setBaseTokenURI(string)": {
        "notice": "the base token URI"
      },
      "setFee(uint256,uint256)": {
        "notice": "set the fee permilliage for a token hash"
      },
      "setProxyRegistryAddress(address)": {
        "notice": "the base token URI"
      },
      "supportsInterface(bytes4)": {
        "notice": "ERC165 interface responder for this contract"
      },
      "tokenURI(uint256)": {
        "notice": "the base token URI"
      },
      "transferOwnership(uint256,address)": {
        "notice": "get the royalty receiver for a token hash"
      }
    },
    "version": 1
  },
  "storageLayout": {
    "storage": [
      {
        "astId": 1431,
        "contract": "src/VTailERC721.sol:VTailERC721",
        "label": "_name",
        "offset": 0,
        "slot": "0",
        "type": "t_string_storage"
      },
      {
        "astId": 1433,
        "contract": "src/VTailERC721.sol:VTailERC721",
        "label": "_symbol",
        "offset": 0,
        "slot": "1",
        "type": "t_string_storage"
      },
      {
        "astId": 1437,
        "contract": "src/VTailERC721.sol:VTailERC721",
        "label": "_owners",
        "offset": 0,
        "slot": "2",
        "type": "t_mapping(t_uint256,t_address)"
      },
      {
        "astId": 1441,
        "contract": "src/VTailERC721.sol:VTailERC721",
        "label": "_balances",
        "offset": 0,
        "slot": "3",
        "type": "t_mapping(t_address,t_uint256)"
      },
      {
        "astId": 1445,
        "contract": "src/VTailERC721.sol:VTailERC721",
        "label": "_tokenApprovals",
        "offset": 0,
        "slot": "4",
        "type": "t_mapping(t_uint256,t_address)"
      },
      {
        "astId": 1451,
        "contract": "src/VTailERC721.sol:VTailERC721",
        "label": "_operatorApprovals",
        "offset": 0,
        "slot": "5",
        "type": "t_mapping(t_address,t_mapping(t_address,t_bool))"
      },
      {
        "astId": 3048,
        "contract": "src/VTailERC721.sol:VTailERC721",
        "label": "royaltyReceiversByHash",
        "offset": 0,
        "slot": "6",
        "type": "t_mapping(t_uint256,t_address)"
      },
      {
        "astId": 3052,
        "contract": "src/VTailERC721.sol:VTailERC721",
        "label": "royaltyFeesByHash",
        "offset": 0,
        "slot": "7",
        "type": "t_mapping(t_uint256,t_uint256)"
      },
      {
        "astId": 479,
        "contract": "src/VTailERC721.sol:VTailERC721",
        "label": "_owner",
        "offset": 0,
        "slot": "8",
        "type": "t_address"
      },
      {
        "astId": 22,
        "contract": "src/VTailERC721.sol:VTailERC721",
        "label": "imx",
        "offset": 0,
        "slot": "9",
        "type": "t_address"
      },
      {
        "astId": 26,
        "contract": "src/VTailERC721.sol:VTailERC721",
        "label": "blueprints",
        "offset": 0,
        "slot": "10",
        "type": "t_mapping(t_uint256,t_bytes_storage)"
      },
      {
        "astId": 4241,
        "contract": "src/VTailERC721.sol:VTailERC721",
        "label": "_baseUri",
        "offset": 0,
        "slot": "11",
        "type": "t_string_storage"
      },
      {
        "astId": 4243,
        "contract": "src/VTailERC721.sol:VTailERC721",
        "label": "_proxyRegistryAddress",
        "offset": 0,
        "slot": "12",
        "type": "t_address"
      },
      {
        "astId": 4245,
        "contract": "src/VTailERC721.sol:VTailERC721",
        "label": "minter",
        "offset": 0,
        "slot": "13",
        "type": "t_address"
      },
      {
        "astId": 4247,
        "contract": "src/VTailERC721.sol:VTailERC721",
        "label": "mintingMax",
        "offset": 0,
        "slot": "14",
        "type": "t_uint256"
      },
      {
        "astId": 4249,
        "contract": "src/VTailERC721.sol:VTailERC721",
        "label": "nextIndexValue",
        "offset": 0,
        "slot": "15",
        "type": "t_uint256"
      },
      {
        "astId": 4252,
        "contract": "src/VTailERC721.sol:VTailERC721",
        "label": "tokenHashes",
        "offset": 0,
        "slot": "16",
        "type": "t_array(t_uint256)dyn_storage"
      }
    ],
    "types": {
      "t_address": {
        "encoding": "inplace",
        "label": "address",
        "numberOfBytes": "20"
      },
      "t_array(t_uint256)dyn_storage": {
        "base": "t_uint256",
        "encoding": "dynamic_array",
        "label": "uint256[]",
        "numberOfBytes": "32"
      },
      "t_bool": {
        "encoding": "inplace",
        "label": "bool",
        "numberOfBytes": "1"
      },
      "t_bytes_storage": {
        "encoding": "bytes",
        "label": "bytes",
        "numberOfBytes": "32"
      },
      "t_mapping(t_address,t_bool)": {
        "encoding": "mapping",
        "key": "t_address",
        "label": "mapping(address => bool)",
        "numberOfBytes": "32",
        "value": "t_bool"
      },
      "t_mapping(t_address,t_mapping(t_address,t_bool))": {
        "encoding": "mapping",
        "key": "t_address",
        "label": "mapping(address => mapping(address => bool))",
        "numberOfBytes": "32",
        "value": "t_mapping(t_address,t_bool)"
      },
      "t_mapping(t_address,t_uint256)": {
        "encoding": "mapping",
        "key": "t_address",
        "label": "mapping(address => uint256)",
        "numberOfBytes": "32",
        "value": "t_uint256"
      },
      "t_mapping(t_uint256,t_address)": {
        "encoding": "mapping",
        "key": "t_uint256",
        "label": "mapping(uint256 => address)",
        "numberOfBytes": "32",
        "value": "t_address"
      },
      "t_mapping(t_uint256,t_bytes_storage)": {
        "encoding": "mapping",
        "key": "t_uint256",
        "label": "mapping(uint256 => bytes)",
        "numberOfBytes": "32",
        "value": "t_bytes_storage"
      },
      "t_mapping(t_uint256,t_uint256)": {
        "encoding": "mapping",
        "key": "t_uint256",
        "label": "mapping(uint256 => uint256)",
        "numberOfBytes": "32",
        "value": "t_uint256"
      },
      "t_string_storage": {
        "encoding": "bytes",
        "label": "string",
        "numberOfBytes": "32"
      },
      "t_uint256": {
        "encoding": "inplace",
        "label": "uint256",
        "numberOfBytes": "32"
      }
    }
  }
}