{
  "address": "0x27B113C0853c4a3E379B45E7FFc7CC25aA1f2a13",
  "abi": [
    {
      "inputs": [
        {
          "internalType": "string",
          "name": "name",
          "type": "string"
        },
        {
          "internalType": "string",
          "name": "symbol",
          "type": "string"
        },
        {
          "internalType": "uint256",
          "name": "_mintingMax",
          "type": "uint256"
        },
        {
          "internalType": "string",
          "name": "_uri",
          "type": "string"
        }
      ],
      "stateMutability": "nonpayable",
      "type": "constructor"
    },
    {
      "anonymous": false,
      "inputs": [
        {
          "indexed": true,
          "internalType": "address",
          "name": "owner",
          "type": "address"
        },
        {
          "indexed": true,
          "internalType": "address",
          "name": "approved",
          "type": "address"
        },
        {
          "indexed": true,
          "internalType": "uint256",
          "name": "tokenId",
          "type": "uint256"
        }
      ],
      "name": "Approval",
      "type": "event"
    },
    {
      "anonymous": false,
      "inputs": [
        {
          "indexed": true,
          "internalType": "address",
          "name": "owner",
          "type": "address"
        },
        {
          "indexed": true,
          "internalType": "address",
          "name": "operator",
          "type": "address"
        },
        {
          "indexed": false,
          "internalType": "bool",
          "name": "approved",
          "type": "bool"
        }
      ],
      "name": "ApprovalForAll",
      "type": "event"
    },
    {
      "anonymous": false,
      "inputs": [
        {
          "indexed": true,
          "internalType": "address",
          "name": "previousOwner",
          "type": "address"
        },
        {
          "indexed": true,
          "internalType": "address",
          "name": "newOwner",
          "type": "address"
        }
      ],
      "name": "OwnershipTransferred",
      "type": "event"
    },
    {
      "anonymous": false,
      "inputs": [
        {
          "indexed": true,
          "internalType": "address",
          "name": "from",
          "type": "address"
        },
        {
          "indexed": true,
          "internalType": "address",
          "name": "to",
          "type": "address"
        },
        {
          "indexed": true,
          "internalType": "uint256",
          "name": "tokenId",
          "type": "uint256"
        }
      ],
      "name": "Transfer",
      "type": "event"
    },
    {
      "inputs": [],
      "name": "_totalSupply",
      "outputs": [
        {
          "internalType": "uint256",
          "name": "totalSupply",
          "type": "uint256"
        }
      ],
      "stateMutability": "view",
      "type": "function"
    },
    {
      "inputs": [],
      "name": "allTokenHashes",
      "outputs": [
        {
          "internalType": "uint256[]",
          "name": "",
          "type": "uint256[]"
        }
      ],
      "stateMutability": "view",
      "type": "function"
    },
    {
      "inputs": [
        {
          "internalType": "address",
          "name": "to",
          "type": "address"
        },
        {
          "internalType": "uint256",
          "name": "tokenId",
          "type": "uint256"
        }
      ],
      "name": "approve",
      "outputs": [],
      "stateMutability": "nonpayable",
      "type": "function"
    },
    {
      "inputs": [
        {
          "internalType": "address",
          "name": "owner",
          "type": "address"
        }
      ],
      "name": "balanceOf",
      "outputs": [
        {
          "internalType": "uint256",
          "name": "",
          "type": "uint256"
        }
      ],
      "stateMutability": "view",
      "type": "function"
    },
    {
      "inputs": [],
      "name": "baseTokenURI",
      "outputs": [
        {
          "internalType": "string",
          "name": "baseUri",
          "type": "string"
        }
      ],
      "stateMutability": "view",
      "type": "function"
    },
    {
      "inputs": [
        {
          "internalType": "uint256",
          "name": "tokenId",
          "type": "uint256"
        }
      ],
      "name": "getApproved",
      "outputs": [
        {
          "internalType": "address",
          "name": "",
          "type": "address"
        }
      ],
      "stateMutability": "view",
      "type": "function"
    },
    {
      "inputs": [
        {
          "internalType": "uint256",
          "name": "_id",
          "type": "uint256"
        }
      ],
      "name": "getFee",
      "outputs": [
        {
          "internalType": "uint256",
          "name": "fee",
          "type": "uint256"
        }
      ],
      "stateMutability": "view",
      "type": "function"
    },
    {
      "inputs": [],
      "name": "getMinter",
      "outputs": [
        {
          "internalType": "address",
          "name": "",
          "type": "address"
        }
      ],
      "stateMutability": "view",
      "type": "function"
    },
    {
      "inputs": [
        {
          "internalType": "address",
          "name": "owner",
          "type": "address"
        },
        {
          "internalType": "address",
          "name": "operator",
          "type": "address"
        }
      ],
      "name": "isApprovedForAll",
      "outputs": [
        {
          "internalType": "bool",
          "name": "",
          "type": "bool"
        }
      ],
      "stateMutability": "view",
      "type": "function"
    },
    {
      "inputs": [
        {
          "internalType": "address",
          "name": "receiver",
          "type": "address"
        },
        {
          "internalType": "uint256",
          "name": "tokenHash",
          "type": "uint256"
        }
      ],
      "name": "mint",
      "outputs": [],
      "stateMutability": "nonpayable",
      "type": "function"
    },
    {
      "inputs": [],
      "name": "name",
      "outputs": [
        {
          "internalType": "string",
          "name": "",
          "type": "string"
        }
      ],
      "stateMutability": "view",
      "type": "function"
    },
    {
      "inputs": [],
      "name": "owner",
      "outputs": [
        {
          "internalType": "address",
          "name": "",
          "type": "address"
        }
      ],
      "stateMutability": "view",
      "type": "function"
    },
    {
      "inputs": [
        {
          "internalType": "uint256",
          "name": "tokenId",
          "type": "uint256"
        }
      ],
      "name": "ownerOf",
      "outputs": [
        {
          "internalType": "address",
          "name": "",
          "type": "address"
        }
      ],
      "stateMutability": "view",
      "type": "function"
    },
    {
      "inputs": [
        {
          "internalType": "address",
          "name": "owner",
          "type": "address"
        },
        {
          "internalType": "uint256[]",
          "name": "tokenIds",
          "type": "uint256[]"
        }
      ],
      "name": "owns",
      "outputs": [
        {
          "internalType": "bool[]",
          "name": "_result",
          "type": "bool[]"
        }
      ],
      "stateMutability": "view",
      "type": "function"
    },
    {
      "inputs": [],
      "name": "proxyRegistryAddress",
      "outputs": [
        {
          "internalType": "address",
          "name": "",
          "type": "address"
        }
      ],
      "stateMutability": "view",
      "type": "function"
    },
    {
      "inputs": [],
      "name": "renounceOwnership",
      "outputs": [],
      "stateMutability": "nonpayable",
      "type": "function"
    },
    {
      "inputs": [
        {
          "internalType": "uint256",
          "name": "_tokenId",
          "type": "uint256"
        },
        {
          "internalType": "uint256",
          "name": "_salePrice",
          "type": "uint256"
        }
      ],
      "name": "royaltyInfo",
      "outputs": [
        {
          "internalType": "address",
          "name": "receiver",
          "type": "address"
        },
        {
          "internalType": "uint256",
          "name": "royaltyAmount",
          "type": "uint256"
        }
      ],
      "stateMutability": "view",
      "type": "function"
    },
    {
      "inputs": [
        {
          "internalType": "uint256",
          "name": "_id",
          "type": "uint256"
        }
      ],
      "name": "royaltyOwner",
      "outputs": [
        {
          "internalType": "address",
          "name": "owner",
          "type": "address"
        }
      ],
      "stateMutability": "view",
      "type": "function"
    },
    {
      "inputs": [
        {
          "internalType": "address",
          "name": "from",
          "type": "address"
        },
        {
          "internalType": "address",
          "name": "to",
          "type": "address"
        },
        {
          "internalType": "uint256",
          "name": "tokenId",
          "type": "uint256"
        }
      ],
      "name": "safeTransferFrom",
      "outputs": [],
      "stateMutability": "nonpayable",
      "type": "function"
    },
    {
      "inputs": [
        {
          "internalType": "address",
          "name": "from",
          "type": "address"
        },
        {
          "internalType": "address",
          "name": "to",
          "type": "address"
        },
        {
          "internalType": "uint256",
          "name": "tokenId",
          "type": "uint256"
        },
        {
          "internalType": "bytes",
          "name": "_data",
          "type": "bytes"
        }
      ],
      "name": "safeTransferFrom",
      "outputs": [],
      "stateMutability": "nonpayable",
      "type": "function"
    },
    {
      "inputs": [
        {
          "internalType": "address",
          "name": "operator",
          "type": "address"
        },
        {
          "internalType": "bool",
          "name": "approved",
          "type": "bool"
        }
      ],
      "name": "setApprovalForAll",
      "outputs": [],
      "stateMutability": "nonpayable",
      "type": "function"
    },
    {
      "inputs": [
        {
          "internalType": "string",
          "name": "_baseU",
          "type": "string"
        }
      ],
      "name": "setBaseTokenURI",
      "outputs": [],
      "stateMutability": "nonpayable",
      "type": "function"
    },
    {
      "inputs": [
        {
          "internalType": "uint256",
          "name": "_id",
          "type": "uint256"
        },
        {
          "internalType": "uint256",
          "name": "_fee",
          "type": "uint256"
        }
      ],
      "name": "setFee",
      "outputs": [],
      "stateMutability": "nonpayable",
      "type": "function"
    },
    {
      "inputs": [
        {
          "internalType": "address",
          "name": "minter_",
          "type": "address"
        }
      ],
      "name": "setMinter",
      "outputs": [],
      "stateMutability": "nonpayable",
      "type": "function"
    },
    {
      "inputs": [
        {
          "internalType": "address",
          "name": "valu",
          "type": "address"
        }
      ],
      "name": "setProxyRegistryAddress",
      "outputs": [],
      "stateMutability": "nonpayable",
      "type": "function"
    },
    {
      "inputs": [
        {
          "internalType": "bytes4",
          "name": "interfaceId",
          "type": "bytes4"
        }
      ],
      "name": "supportsInterface",
      "outputs": [
        {
          "internalType": "bool",
          "name": "supportsIface",
          "type": "bool"
        }
      ],
      "stateMutability": "view",
      "type": "function"
    },
    {
      "inputs": [],
      "name": "symbol",
      "outputs": [
        {
          "internalType": "string",
          "name": "",
          "type": "string"
        }
      ],
      "stateMutability": "view",
      "type": "function"
    },
    {
      "inputs": [
        {
          "internalType": "uint256",
          "name": "_tokenId",
          "type": "uint256"
        }
      ],
      "name": "tokenURI",
      "outputs": [
        {
          "internalType": "string",
          "name": "_tokenUri",
          "type": "string"
        }
      ],
      "stateMutability": "view",
      "type": "function"
    },
    {
      "inputs": [
        {
          "internalType": "address",
          "name": "from",
          "type": "address"
        },
        {
          "internalType": "address",
          "name": "to",
          "type": "address"
        },
        {
          "internalType": "uint256",
          "name": "tokenId",
          "type": "uint256"
        }
      ],
      "name": "transferFrom",
      "outputs": [],
      "stateMutability": "nonpayable",
      "type": "function"
    },
    {
      "inputs": [
        {
          "internalType": "uint256",
          "name": "_id",
          "type": "uint256"
        },
        {
          "internalType": "address",
          "name": "_newOwner",
          "type": "address"
        }
      ],
      "name": "transferOwnership",
      "outputs": [],
      "stateMutability": "nonpayable",
      "type": "function"
    },
    {
      "inputs": [
        {
          "internalType": "address",
          "name": "newOwner",
          "type": "address"
        }
      ],
      "name": "transferOwnership",
      "outputs": [],
      "stateMutability": "nonpayable",
      "type": "function"
    }
  ],
  "transactionHash": "0xccdbffae614032e023f1fc2ebe2aca750b382f929021cd2bb04679bc98168441",
  "args": [
    "The NFT",
    "NFT",
    9999,
    "https://thenft.com/"
  ],
  "solcInputHash": "b09fe7e91ecd746796b1258e3c57072e",
  "bytecode": "0x60806040523480156200001157600080fd5b506040516200287938038062002879833981016040819052620000349162000252565b8351849084906200004d90600090602085019062000101565b5080516200006390600190602084019062000101565b505050620000806200007a620000ab60201b60201c565b620000af565b600c82905580516200009a90600990602084019062000101565b50506001600d55506200033c915050565b3390565b600880546001600160a01b038381166001600160a01b0319831681179093556040519116919082907f8be0079c531659141344cd1fd0a4f28419497f9722a3daafe3b4186f6b6457e090600090a35050565b8280546200010f90620002e9565b90600052602060002090601f0160209004810192826200013357600085556200017e565b82601f106200014e57805160ff19168380011785556200017e565b828001600101855582156200017e579182015b828111156200017e57825182559160200191906001019062000161565b506200018c92915062000190565b5090565b5b808211156200018c576000815560010162000191565b600082601f830112620001b8578081fd5b81516001600160401b0380821115620001d557620001d562000326565b6040516020601f8401601f1916820181018381118382101715620001fd57620001fd62000326565b604052838252858401810187101562000214578485fd5b8492505b8383101562000237578583018101518284018201529182019162000218565b838311156200024857848185840101525b5095945050505050565b6000806000806080858703121562000268578384fd5b84516001600160401b03808211156200027f578586fd5b6200028d88838901620001a7565b95506020870151915080821115620002a3578485fd5b620002b188838901620001a7565b9450604087015193506060870151915080821115620002ce578283fd5b50620002dd87828801620001a7565b91505092959194509250565b600281046001821680620002fe57607f821691505b602082108114156200032057634e487b7160e01b600052602260045260246000fd5b50919050565b634e487b7160e01b600052604160045260246000fd5b61252d806200034c6000396000f3fe608060405234801561001057600080fd5b50600436106101e55760003560e01c8063715018a61161010f578063cd7c0326116100a2578063f2fde38b11610071578063f2fde38b146103fa578063f36675171461040d578063fca3b5aa14610415578063fcee45f414610428576101e5565b8063cd7c0326146103c4578063d26ea6c0146103cc578063d547cfb7146103df578063e985e9c5146103e7576101e5565b8063a22cb465116100de578063a22cb4651461036b578063b15168311461037e578063b88d4fde1461039e578063c87b56dd146103b1576101e5565b8063715018a61461033e5780638a86993b146103465780638da5cb5b1461035b57806395d89b4114610363576101e5565b80632a55205a1161018757806342842e0e1161015657806342842e0e146102f257806352f7c988146103055780636352211e1461031857806370a082311461032b576101e5565b80632a55205a1461029657806330176e13146102b75780633eaaf86b146102ca57806340c10f19146102df576101e5565b8063095ea7b3116101c3578063095ea7b31461024857806323b872dd1461025d57806326fc02091461027057806329507f7314610283576101e5565b806301ffc9a7146101ea57806306fdde0314610213578063081812fc14610228575b600080fd5b6101fd6101f836600461198e565b61043b565b60405161020a9190611c5a565b60405180910390f35b61021b61047f565b60405161020a9190611c65565b61023b610236366004611a28565b610511565b60405161020a9190611b73565b61025b610256366004611963565b610560565b005b61025b61026b3660046117b9565b6105f8565b61023b61027e366004611a28565b610630565b61025b610291366004611a40565b61064b565b6102a96102a4366004611a64565b6106f2565b60405161020a929190611bc3565b61025b6102c53660046119e2565b610780565b6102d26107d6565b60405161020a9190612353565b61025b6102ed366004611963565b6107ec565b61025b6103003660046117b9565b6108c2565b61025b610313366004611a64565b6108dd565b61023b610326366004611a28565b610945565b6102d2610339366004611765565b61097a565b61025b6109be565b61034e610a09565b60405161020a9190611c22565b61023b610a60565b61021b610a6f565b61025b610379366004611932565b610a7e565b61039161038c366004611876565b610b4c565b60405161020a9190611bdc565b61025b6103ac3660046117f9565b610c3b565b61021b6103bf366004611a28565b610c7a565b61023b610cae565b61025b6103da366004611765565b610cbd565b61021b610d2b565b6101fd6103f5366004611781565b610d3a565b61025b610408366004611765565b610e18565b61023b610e89565b61025b610423366004611765565b610e98565b6102d2610436366004611a28565b610ef0565b60006001600160e01b031982167f2a55205a000000000000000000000000000000000000000000000000000000001480610479575061047982610f02565b92915050565b60606000805461048e90612420565b80601f01602080910402602001604051908101604052809291908181526020018280546104ba90612420565b80156105075780601f106104dc57610100808354040283529160200191610507565b820191906000526020600020905b8154815290600101906020018083116104ea57829003601f168201915b5050505050905090565b600061051c82610f40565b6105415760405162461bcd60e51b81526004016105389061204b565b60405180910390fd5b506000818152600460205260409020546001600160a01b03165b919050565b600061056b82610945565b9050806001600160a01b0316836001600160a01b0316141561059f5760405162461bcd60e51b8152600401610538906121f4565b806001600160a01b03166105b1610f5d565b6001600160a01b031614806105cd57506105cd816103f5610f5d565b6105e95760405162461bcd60e51b815260040161053890611ec8565b6105f38383610f61565b505050565b610609610603610f5d565b82610fdc565b6106255760405162461bcd60e51b815260040161053890612288565b6105f3838383611061565b6000908152600660205260409020546001600160a01b031690565b60008281526006602052604090205482906001600160a01b031633146106835760405162461bcd60e51b815260040161053890612197565b821580159061069a57506001600160a01b03821615155b6106b65760405162461bcd60e51b815260040161053890612251565b50600091825260066020526040909120805473ffffffffffffffffffffffffffffffffffffffff19166001600160a01b03909216919091179055565b600080600083116107155760405162461bcd60e51b81526004016105389061213a565b600084116107355760405162461bcd60e51b8152600401610538906122e5565b6000848152600660209081526040808320546007909252909120546001600160a01b039091169250839061076d90620f4240906123aa565b61077791906123be565b90509250929050565b610788610f5d565b6001600160a01b0316610799610a60565b6001600160a01b0316146107bf5760405162461bcd60e51b8152600401610538906120a8565b80516107d2906009906020840190611674565b5050565b60006001600d546107e791906123dd565b905090565b600b546001600160a01b031633146108165760405162461bcd60e51b815260040161053890611fdf565b600c546108216107d6565b111561083f5760405162461bcd60e51b815260040161053890611da0565b6000818152600660205260408120805473ffffffffffffffffffffffffffffffffffffffff19166001600160a01b038516179055600e80546001810182559082527fbb7b4a454dc3493923482f07822329ed19e8244eff582cc204f8554c3620c3fd01829055600d8054916108b38361245b565b91905055506107d2828261119b565b6105f383838360405180602001604052806000815250610c3b565b60008281526006602052604090205482906001600160a01b031633146109155760405162461bcd60e51b815260040161053890612197565b826109325760405162461bcd60e51b81526004016105389061231c565b5060009182526007602052604090912055565b6000818152600260205260408120546001600160a01b0316806104795760405162461bcd60e51b815260040161053890611f82565b60006001600160a01b0382166109a25760405162461bcd60e51b815260040161053890611f25565b506001600160a01b031660009081526003602052604090205490565b6109c6610f5d565b6001600160a01b03166109d7610a60565b6001600160a01b0316146109fd5760405162461bcd60e51b8152600401610538906120a8565b610a076000611287565b565b6060600e80548060200260200160405190810160405280929190818152602001828054801561050757602002820191906000526020600020905b815481526020019060010190808311610a43575050505050905090565b6008546001600160a01b031690565b60606001805461048e90612420565b610a86610f5d565b6001600160a01b0316826001600160a01b03161415610ab75760405162461bcd60e51b815260040161053890611e34565b8060056000610ac4610f5d565b6001600160a01b03908116825260208083019390935260409182016000908120918716808252919093529120805460ff191692151592909217909155610b08610f5d565b6001600160a01b03167f17307eab39ab6107e8899845ad3d59bd9653f200f220920489ca2b5937696c3183604051610b409190611c5a565b60405180910390a35050565b6060815167ffffffffffffffff811115610b7657634e487b7160e01b600052604160045260246000fd5b604051908082528060200260200182016040528015610b9f578160200160208202803683370190505b50905060005b8251811015610c3457836001600160a01b0316610be8848381518110610bdb57634e487b7160e01b600052603260045260246000fd5b6020026020010151610945565b6001600160a01b031614828281518110610c1257634e487b7160e01b600052603260045260246000fd5b9115156020928302919091019091015280610c2c8161245b565b915050610ba5565b5092915050565b610c4c610c46610f5d565b83610fdc565b610c685760405162461bcd60e51b815260040161053890612288565b610c74848484846112e6565b50505050565b60606009610c8783611319565b604051602001610c98929190611acd565b6040516020818303038152906040529050919050565b600a546001600160a01b031690565b610cc5610f5d565b6001600160a01b0316610cd6610a60565b6001600160a01b031614610cfc5760405162461bcd60e51b8152600401610538906120a8565b600a805473ffffffffffffffffffffffffffffffffffffffff19166001600160a01b0392909216919091179055565b60606009805461048e90612420565b600a546000906001600160a01b031615610e0757600a546040517fc45527910000000000000000000000000000000000000000000000000000000081526001600160a01b0391821691841690829063c455279190610d9c908890600401611b73565b60206040518083038186803b158015610db457600080fd5b505afa158015610dc8573d6000803e3d6000fd5b505050506040513d601f19601f82011682018060405250810190610dec91906119c6565b6001600160a01b03161415610e05576001915050610479565b505b610e118383611468565b9392505050565b610e20610f5d565b6001600160a01b0316610e31610a60565b6001600160a01b031614610e575760405162461bcd60e51b8152600401610538906120a8565b6001600160a01b038116610e7d5760405162461bcd60e51b815260040161053890611d0c565b610e8681611287565b50565b600b546001600160a01b031690565b600b546001600160a01b031615610ec15760405162461bcd60e51b815260040161053890611c78565b600b805473ffffffffffffffffffffffffffffffffffffffff19166001600160a01b0392909216919091179055565b60009081526007602052604090205490565b60006001600160e01b031982167f2a55205a000000000000000000000000000000000000000000000000000000001480610479575061047982611496565b6000908152600260205260409020546001600160a01b0316151590565b3390565b6000818152600460205260409020805473ffffffffffffffffffffffffffffffffffffffff19166001600160a01b0384169081179091558190610fa382610945565b6001600160a01b03167f8c5be1e5ebec7d5bd14f71427d1e84f3dd0314c0f7b2291e5b200ac8c7c3b92560405160405180910390a45050565b6000610fe782610f40565b6110035760405162461bcd60e51b815260040161053890611e6b565b600061100e83610945565b9050806001600160a01b0316846001600160a01b031614806110495750836001600160a01b031661103e84610511565b6001600160a01b0316145b8061105957506110598185610d3a565b949350505050565b826001600160a01b031661107482610945565b6001600160a01b03161461109a5760405162461bcd60e51b8152600401610538906120dd565b6001600160a01b0382166110c05760405162461bcd60e51b815260040161053890611dd7565b6110cb8383836105f3565b6110d6600082610f61565b6001600160a01b03831660009081526003602052604081208054600192906110ff9084906123dd565b90915550506001600160a01b038216600090815260036020526040812080546001929061112d908490612392565b9091555050600081815260026020526040808220805473ffffffffffffffffffffffffffffffffffffffff19166001600160a01b0386811691821790925591518493918716917fddf252ad1be2c89b69c2b068fc378daa952ba7f163c4a11628f55a4df523b3ef91a4505050565b6001600160a01b0382166111c15760405162461bcd60e51b815260040161053890612016565b6111ca81610f40565b156111e75760405162461bcd60e51b815260040161053890611d69565b6111f3600083836105f3565b6001600160a01b038216600090815260036020526040812080546001929061121c908490612392565b9091555050600081815260026020526040808220805473ffffffffffffffffffffffffffffffffffffffff19166001600160a01b03861690811790915590518392907fddf252ad1be2c89b69c2b068fc378daa952ba7f163c4a11628f55a4df523b3ef908290a45050565b600880546001600160a01b0383811673ffffffffffffffffffffffffffffffffffffffff19831681179093556040519116919082907f8be0079c531659141344cd1fd0a4f28419497f9722a3daafe3b4186f6b6457e090600090a35050565b6112f1848484611061565b6112fd84848484611508565b610c745760405162461bcd60e51b815260040161053890611caf565b60608161135a575060408051808201909152600181527f3000000000000000000000000000000000000000000000000000000000000000602082015261055b565b8160005b8115611384578061136e8161245b565b915061137d9050600a836123aa565b915061135e565b60008167ffffffffffffffff8111156113ad57634e487b7160e01b600052604160045260246000fd5b6040519080825280601f01601f1916602001820160405280156113d7576020820181803683370190505b5090505b8415611059576113ec6001836123dd565b91506113f9600a86612476565b611404906030612392565b60f81b81838151811061142757634e487b7160e01b600052603260045260246000fd5b60200101907effffffffffffffffffffffffffffffffffffffffffffffffffffffffffffff1916908160001a905350611461600a866123aa565b94506113db565b6001600160a01b03918216600090815260056020908152604080832093909416825291909152205460ff1690565b60006001600160e01b031982167f80ac58cd0000000000000000000000000000000000000000000000000000000014806114f957506001600160e01b031982167f5b5e139f00000000000000000000000000000000000000000000000000000000145b8061047957506104798261163c565b600061151c846001600160a01b031661166e565b1561163157836001600160a01b031663150b7a02611538610f5d565b8786866040518563ffffffff1660e01b815260040161155a9493929190611b87565b602060405180830381600087803b15801561157457600080fd5b505af19250505080156115a4575060408051601f3d908101601f191682019092526115a1918101906119aa565b60015b6115fe573d8080156115d2576040519150601f19603f3d011682016040523d82523d6000602084013e6115d7565b606091505b5080516115f65760405162461bcd60e51b815260040161053890611caf565b805181602001fd5b6001600160e01b0319167f150b7a0200000000000000000000000000000000000000000000000000000000149050611059565b506001949350505050565b6001600160e01b031981167f01ffc9a70000000000000000000000000000000000000000000000000000000014919050565b3b151590565b82805461168090612420565b90600052602060002090601f0160209004810192826116a257600085556116e8565b82601f106116bb57805160ff19168380011785556116e8565b828001600101855582156116e8579182015b828111156116e85782518255916020019190600101906116cd565b506116f49291506116f8565b5090565b5b808211156116f457600081556001016116f9565b600067ffffffffffffffff831115611727576117276124b6565b61173a6020601f19601f8601160161235c565b905082815283838301111561174e57600080fd5b828260208301376000602084830101529392505050565b600060208284031215611776578081fd5b8135610e11816124cc565b60008060408385031215611793578081fd5b823561179e816124cc565b915060208301356117ae816124cc565b809150509250929050565b6000806000606084860312156117cd578081fd5b83356117d8816124cc565b925060208401356117e8816124cc565b929592945050506040919091013590565b6000806000806080858703121561180e578081fd5b8435611819816124cc565b93506020850135611829816124cc565b925060408501359150606085013567ffffffffffffffff81111561184b578182fd5b8501601f8101871361185b578182fd5b61186a8782356020840161170d565b91505092959194509250565b60008060408385031215611888578182fd5b8235611893816124cc565b915060208381013567ffffffffffffffff808211156118b0578384fd5b818601915086601f8301126118c3578384fd5b8135818111156118d5576118d56124b6565b83810291506118e584830161235c565b8181528481019084860184860187018b10156118ff578788fd5b8795505b83861015611921578035835260019590950194918601918601611903565b508096505050505050509250929050565b60008060408385031215611944578182fd5b823561194f816124cc565b9150602083013580151581146117ae578182fd5b60008060408385031215611975578182fd5b8235611980816124cc565b946020939093013593505050565b60006020828403121561199f578081fd5b8135610e11816124e1565b6000602082840312156119bb578081fd5b8151610e11816124e1565b6000602082840312156119d7578081fd5b8151610e11816124cc565b6000602082840312156119f3578081fd5b813567ffffffffffffffff811115611a09578182fd5b8201601f81018413611a19578182fd5b6110598482356020840161170d565b600060208284031215611a39578081fd5b5035919050565b60008060408385031215611a52578182fd5b8235915060208301356117ae816124cc565b60008060408385031215611a76578182fd5b50508035926020909101359150565b60008151808452611a9d8160208601602086016123f4565b601f01601f19169290920160200192915050565b60008151611ac38185602086016123f4565b9290920192915050565b8254600090819060028104600180831680611ae957607f831692505b6020808410821415611b0957634e487b7160e01b87526022600452602487fd5b818015611b1d5760018114611b2e57611b5a565b60ff19861689528489019650611b5a565b611b378b612386565b885b86811015611b525781548b820152908501908301611b39565b505084890196505b505050505050611b6a8185611ab1565b95945050505050565b6001600160a01b0391909116815260200190565b60006001600160a01b03808716835280861660208401525083604083015260806060830152611bb96080830184611a85565b9695505050505050565b6001600160a01b03929092168252602082015260400190565b6020808252825182820181905260009190848201906040850190845b81811015611c16578351151583529284019291840191600101611bf8565b50909695505050505050565b6020808252825182820181905260009190848201906040850190845b81811015611c1657835183529284019291840191600101611c3e565b901515815260200190565b600060208252610e116020830184611a85565b60208082526009908201527f696d6d757461626c650000000000000000000000000000000000000000000000604082015260600190565b60208082526032908201527f4552433732313a207472616e7366657220746f206e6f6e20455243373231526560408201527f63656976657220696d706c656d656e7465720000000000000000000000000000606082015260800190565b60208082526026908201527f4f776e61626c653a206e6577206f776e657220697320746865207a65726f206160408201527f6464726573730000000000000000000000000000000000000000000000000000606082015260800190565b6020808252601c908201527f4552433732313a20746f6b656e20616c7265616479206d696e74656400000000604082015260600190565b60208082526013908201527f4d696e74696e67206d6178207265616368656400000000000000000000000000604082015260600190565b60208082526024908201527f4552433732313a207472616e7366657220746f20746865207a65726f2061646460408201527f7265737300000000000000000000000000000000000000000000000000000000606082015260800190565b60208082526019908201527f4552433732313a20617070726f766520746f2063616c6c657200000000000000604082015260600190565b6020808252602c908201527f4552433732313a206f70657261746f7220717565727920666f72206e6f6e657860408201527f697374656e7420746f6b656e0000000000000000000000000000000000000000606082015260800190565b60208082526038908201527f4552433732313a20617070726f76652063616c6c6572206973206e6f74206f7760408201527f6e6572206e6f7220617070726f76656420666f7220616c6c0000000000000000606082015260800190565b6020808252602a908201527f4552433732313a2062616c616e636520717565727920666f7220746865207a6560408201527f726f206164647265737300000000000000000000000000000000000000000000606082015260800190565b60208082526029908201527f4552433732313a206f776e657220717565727920666f72206e6f6e657869737460408201527f656e7420746f6b656e0000000000000000000000000000000000000000000000606082015260800190565b6020808252601f908201527f4f6e6c7920746865206d696e7465722063616e206d696e7420746f6b656e7300604082015260600190565b6020808252818101527f4552433732313a206d696e7420746f20746865207a65726f2061646472657373604082015260600190565b6020808252602c908201527f4552433732313a20617070726f76656420717565727920666f72206e6f6e657860408201527f697374656e7420746f6b656e0000000000000000000000000000000000000000606082015260800190565b6020808252818101527f4f776e61626c653a2063616c6c6572206973206e6f7420746865206f776e6572604082015260600190565b60208082526029908201527f4552433732313a207472616e73666572206f6620746f6b656e2074686174206960408201527f73206e6f74206f776e0000000000000000000000000000000000000000000000606082015260800190565b60208082526021908201527f53616c65207072696365206d7573742062652067726561746572207468616e2060408201527f3000000000000000000000000000000000000000000000000000000000000000606082015260800190565b6020808252602a908201527f4f6e6c7920746865206f776e65722063616e206d6f646966792074686520726f60408201527f79616c7479206665657300000000000000000000000000000000000000000000606082015260800190565b60208082526021908201527f4552433732313a20617070726f76616c20746f2063757272656e74206f776e6560408201527f7200000000000000000000000000000000000000000000000000000000000000606082015260800190565b6020808252601d908201527f496e76616c696420746f6b656e206964206f72206e6577206f776e6572000000604082015260600190565b60208082526031908201527f4552433732313a207472616e736665722063616c6c6572206973206e6f74206f60408201527f776e6572206e6f7220617070726f766564000000000000000000000000000000606082015260800190565b60208082526016908201527f546f6b656e204964206d7573742062652076616c696400000000000000000000604082015260600190565b60208082526012908201527f4665652063616e6e6f74206265207a65726f0000000000000000000000000000604082015260600190565b90815260200190565b60405181810167ffffffffffffffff8111828210171561237e5761237e6124b6565b604052919050565b60009081526020902090565b600082198211156123a5576123a561248a565b500190565b6000826123b9576123b96124a0565b500490565b60008160001904831182151516156123d8576123d861248a565b500290565b6000828210156123ef576123ef61248a565b500390565b60005b8381101561240f5781810151838201526020016123f7565b83811115610c745750506000910152565b60028104600182168061243457607f821691505b6020821081141561245557634e487b7160e01b600052602260045260246000fd5b50919050565b600060001982141561246f5761246f61248a565b5060010190565b600082612485576124856124a0565b500690565b634e487b7160e01b600052601160045260246000fd5b634e487b7160e01b600052601260045260246000fd5b634e487b7160e01b600052604160045260246000fd5b6001600160a01b0381168114610e8657600080fd5b6001600160e01b031981168114610e8657600080fdfea264697066735822122032a57ec900d22f0c1386962c36f7c557ef4e612585575029b1d9b856de38de2a64736f6c63430008000033",
  "devdoc": {
    "details": "see  [EIP-20: Basic token standard]",
    "kind": "dev",
    "methods": {
      "_totalSupply()": {
        "details": "mint an NFT of the given id to the target address",
        "returns": {
          "totalSupply": "the total supply of the token"
        }
      },
      "approve(address,uint256)": {
        "details": "See {IERC721-approve}."
      },
      "balanceOf(address)": {
        "details": "See {IERC721-balanceOf}."
      },
      "baseTokenURI()": {
        "returns": {
          "baseUri": "- the base URI"
        }
      },
      "constructor": {
        "details": "Initializes the contract with the minter, the mintingMax and the total supply.",
        "params": {
          "_mintingMax": "the total number of tokens  to be minted",
          "_uri": "the base uri for the token",
          "name": "the token name",
          "symbol": "the token symbol"
        }
      },
      "getApproved(uint256)": {
        "details": "See {IERC721-getApproved}."
      },
      "getFee(uint256)": {
        "params": {
          "_id": "- id of the token hash "
        },
        "returns": {
          "fee": "- the fee"
        }
      },
      "getMinter()": {
        "details": "get the allowed minter"
      },
      "mint(address,uint256)": {
        "details": "mint an NFT of the given id to the target address",
        "params": {
          "receiver": "the tokenHash to mint them"
        }
      },
      "name()": {
        "details": "See {IERC721Metadata-name}."
      },
      "owner()": {
        "details": "Returns the address of the current owner."
      },
      "ownerOf(uint256)": {
        "details": "See {IERC721-ownerOf}."
      },
      "proxyRegistryAddress()": {
        "returns": {
          "_0": "baseUri - the base URI"
        }
      },
      "renounceOwnership()": {
        "details": "Leaves the contract without owner. It will not be possible to call `onlyOwner` functions anymore. Can only be called by the current owner. NOTE: Renouncing ownership will leave the contract without an owner, thereby removing any functionality that is only available to the owner."
      },
      "royaltyInfo(uint256,uint256)": {
        "details": "ERC2981 - return the receiver and royalty payment given the id and sale price",
        "params": {
          "_salePrice": "the price of the token",
          "_tokenId": "the id of the token"
        },
        "returns": {
          "receiver": "the receiver",
          "royaltyAmount": "the royalty payment"
        }
      },
      "royaltyOwner(uint256)": {
        "params": {
          "_id": "- id of the token hash "
        },
        "returns": {
          "owner": "- the royalty owner"
        }
      },
      "safeTransferFrom(address,address,uint256)": {
        "details": "See {IERC721-safeTransferFrom}."
      },
      "safeTransferFrom(address,address,uint256,bytes)": {
        "details": "See {IERC721-safeTransferFrom}."
      },
      "setApprovalForAll(address,bool)": {
        "details": "See {IERC721-setApprovalForAll}."
      },
      "setFee(uint256,uint256)": {
        "params": {
          "_fee": "- the fee permilliage to set",
          "_id": "- id of the token hash "
        }
      },
      "setMinter(address)": {
        "details": "set the allowed minter"
      },
      "supportsInterface(bytes4)": {
        "params": {
          "interfaceId": "- the interface id to check"
        },
        "returns": {
          "supportsIface": "- whether the interface is supported"
        }
      },
      "symbol()": {
        "details": "See {IERC721Metadata-symbol}."
      },
      "tokenURI(uint256)": {
        "params": {
          "_tokenId": "- the interface id to check"
        },
        "returns": {
          "_tokenUri": "- the token  URI"
        }
      },
      "transferFrom(address,address,uint256)": {
        "details": "See {IERC721-transferFrom}."
      },
      "transferOwnership(address)": {
        "details": "Transfers ownership of the contract to a new account (`newOwner`). Can only be called by the current owner."
      },
      "transferOwnership(uint256,address)": {
        "params": {
          "_id": "- id of the token hash ",
          "_newOwner": "- address of the new owners "
        }
      }
    },
    "title": "ERC721 contract for VTail.com",
    "version": 1
  },
  "userdoc": {
    "kind": "user",
    "methods": {
      "baseTokenURI()": {
        "notice": "the base token URI"
      },
      "getFee(uint256)": {
        "notice": "get the fee permilliage for a token hash"
      },
      "isApprovedForAll(address,address)": {
        "notice": "Override isApprovedForAll to whitelist user's OpenSea proxy accounts  to enable gas-less listings."
      },
      "proxyRegistryAddress()": {
        "notice": "the base token URI"
      },
      "royaltyOwner(uint256)": {
        "notice": "get the royalty receiver for a token hash"
      },
      "setBaseTokenURI(string)": {
        "notice": "the base token URI"
      },
      "setFee(uint256,uint256)": {
        "notice": "set the fee permilliage for a token hash"
      },
      "setProxyRegistryAddress(address)": {
        "notice": "the base token URI"
      },
      "supportsInterface(bytes4)": {
        "notice": "ERC165 interface responder for this contract"
      },
      "tokenURI(uint256)": {
        "notice": "the base token URI"
      },
      "transferOwnership(uint256,address)": {
        "notice": "get the royalty receiver for a token hash"
      }
    },
    "version": 1
  },
  "storageLayout": {
    "storage": [
      {
        "astId": 959,
        "contract": "src/VTailERC721.sol:VTailERC721",
        "label": "_name",
        "offset": 0,
        "slot": "0",
        "type": "t_string_storage"
      },
      {
        "astId": 961,
        "contract": "src/VTailERC721.sol:VTailERC721",
        "label": "_symbol",
        "offset": 0,
        "slot": "1",
        "type": "t_string_storage"
      },
      {
        "astId": 965,
        "contract": "src/VTailERC721.sol:VTailERC721",
        "label": "_owners",
        "offset": 0,
        "slot": "2",
        "type": "t_mapping(t_uint256,t_address)"
      },
      {
        "astId": 969,
        "contract": "src/VTailERC721.sol:VTailERC721",
        "label": "_balances",
        "offset": 0,
        "slot": "3",
        "type": "t_mapping(t_address,t_uint256)"
      },
      {
        "astId": 973,
        "contract": "src/VTailERC721.sol:VTailERC721",
        "label": "_tokenApprovals",
        "offset": 0,
        "slot": "4",
        "type": "t_mapping(t_uint256,t_address)"
      },
      {
        "astId": 979,
        "contract": "src/VTailERC721.sol:VTailERC721",
        "label": "_operatorApprovals",
        "offset": 0,
        "slot": "5",
        "type": "t_mapping(t_address,t_mapping(t_address,t_bool))"
      },
      {
        "astId": 2576,
        "contract": "src/VTailERC721.sol:VTailERC721",
        "label": "royaltyReceiversByHash",
        "offset": 0,
        "slot": "6",
        "type": "t_mapping(t_uint256,t_address)"
      },
      {
        "astId": 2580,
        "contract": "src/VTailERC721.sol:VTailERC721",
        "label": "royaltyFeesByHash",
        "offset": 0,
        "slot": "7",
        "type": "t_mapping(t_uint256,t_uint256)"
      },
      {
        "astId": 7,
        "contract": "src/VTailERC721.sol:VTailERC721",
        "label": "_owner",
        "offset": 0,
        "slot": "8",
        "type": "t_address"
      },
      {
        "astId": 3775,
        "contract": "src/VTailERC721.sol:VTailERC721",
        "label": "_baseUri",
        "offset": 0,
        "slot": "9",
        "type": "t_string_storage"
      },
      {
        "astId": 3777,
        "contract": "src/VTailERC721.sol:VTailERC721",
        "label": "_proxyRegistryAddress",
        "offset": 0,
        "slot": "10",
        "type": "t_address"
      },
      {
        "astId": 3779,
        "contract": "src/VTailERC721.sol:VTailERC721",
        "label": "minter",
        "offset": 0,
        "slot": "11",
        "type": "t_address"
      },
      {
        "astId": 3781,
        "contract": "src/VTailERC721.sol:VTailERC721",
        "label": "mintingMax",
        "offset": 0,
        "slot": "12",
        "type": "t_uint256"
      },
      {
        "astId": 3783,
        "contract": "src/VTailERC721.sol:VTailERC721",
        "label": "nextIndexValue",
        "offset": 0,
        "slot": "13",
        "type": "t_uint256"
      },
      {
        "astId": 3786,
        "contract": "src/VTailERC721.sol:VTailERC721",
        "label": "tokenHashes",
        "offset": 0,
        "slot": "14",
        "type": "t_array(t_uint256)dyn_storage"
      }
    ],
    "types": {
      "t_address": {
        "encoding": "inplace",
        "label": "address",
        "numberOfBytes": "20"
      },
      "t_array(t_uint256)dyn_storage": {
        "base": "t_uint256",
        "encoding": "dynamic_array",
        "label": "uint256[]",
        "numberOfBytes": "32"
      },
      "t_bool": {
        "encoding": "inplace",
        "label": "bool",
        "numberOfBytes": "1"
      },
      "t_mapping(t_address,t_bool)": {
        "encoding": "mapping",
        "key": "t_address",
        "label": "mapping(address => bool)",
        "numberOfBytes": "32",
        "value": "t_bool"
      },
      "t_mapping(t_address,t_mapping(t_address,t_bool))": {
        "encoding": "mapping",
        "key": "t_address",
        "label": "mapping(address => mapping(address => bool))",
        "numberOfBytes": "32",
        "value": "t_mapping(t_address,t_bool)"
      },
      "t_mapping(t_address,t_uint256)": {
        "encoding": "mapping",
        "key": "t_address",
        "label": "mapping(address => uint256)",
        "numberOfBytes": "32",
        "value": "t_uint256"
      },
      "t_mapping(t_uint256,t_address)": {
        "encoding": "mapping",
        "key": "t_uint256",
        "label": "mapping(uint256 => address)",
        "numberOfBytes": "32",
        "value": "t_address"
      },
      "t_mapping(t_uint256,t_uint256)": {
        "encoding": "mapping",
        "key": "t_uint256",
        "label": "mapping(uint256 => uint256)",
        "numberOfBytes": "32",
        "value": "t_uint256"
      },
      "t_string_storage": {
        "encoding": "bytes",
        "label": "string",
        "numberOfBytes": "32"
      },
      "t_uint256": {
        "encoding": "inplace",
        "label": "uint256",
        "numberOfBytes": "32"
      }
    }
  }
}