{
  "address": "0xedC7044F6596Ca10865575AF2732146697B5E2b3",
  "abi": [
    {
      "inputs": [
        {
          "internalType": "string",
          "name": "name",
          "type": "string"
        },
        {
          "internalType": "string",
          "name": "symbol",
          "type": "string"
        },
        {
          "internalType": "uint256",
          "name": "_mintingMax",
          "type": "uint256"
        },
        {
          "internalType": "string",
          "name": "_uri",
          "type": "string"
        }
      ],
      "stateMutability": "nonpayable",
      "type": "constructor"
    },
    {
      "anonymous": false,
      "inputs": [
        {
          "indexed": true,
          "internalType": "address",
          "name": "owner",
          "type": "address"
        },
        {
          "indexed": true,
          "internalType": "address",
          "name": "approved",
          "type": "address"
        },
        {
          "indexed": true,
          "internalType": "uint256",
          "name": "tokenId",
          "type": "uint256"
        }
      ],
      "name": "Approval",
      "type": "event"
    },
    {
      "anonymous": false,
      "inputs": [
        {
          "indexed": true,
          "internalType": "address",
          "name": "owner",
          "type": "address"
        },
        {
          "indexed": true,
          "internalType": "address",
          "name": "operator",
          "type": "address"
        },
        {
          "indexed": false,
          "internalType": "bool",
          "name": "approved",
          "type": "bool"
        }
      ],
      "name": "ApprovalForAll",
      "type": "event"
    },
    {
      "anonymous": false,
      "inputs": [
        {
          "indexed": true,
          "internalType": "address",
          "name": "previousOwner",
          "type": "address"
        },
        {
          "indexed": true,
          "internalType": "address",
          "name": "newOwner",
          "type": "address"
        }
      ],
      "name": "OwnershipTransferred",
      "type": "event"
    },
    {
      "anonymous": false,
      "inputs": [
        {
          "indexed": true,
          "internalType": "address",
          "name": "from",
          "type": "address"
        },
        {
          "indexed": true,
          "internalType": "address",
          "name": "to",
          "type": "address"
        },
        {
          "indexed": true,
          "internalType": "uint256",
          "name": "tokenId",
          "type": "uint256"
        }
      ],
      "name": "Transfer",
      "type": "event"
    },
    {
      "inputs": [],
      "name": "_totalSupply",
      "outputs": [
        {
          "internalType": "uint256",
          "name": "totalSupply",
          "type": "uint256"
        }
      ],
      "stateMutability": "view",
      "type": "function"
    },
    {
      "inputs": [],
      "name": "allTokenHashes",
      "outputs": [
        {
          "internalType": "uint256[]",
          "name": "",
          "type": "uint256[]"
        }
      ],
      "stateMutability": "view",
      "type": "function"
    },
    {
      "inputs": [
        {
          "internalType": "address",
          "name": "to",
          "type": "address"
        },
        {
          "internalType": "uint256",
          "name": "tokenId",
          "type": "uint256"
        }
      ],
      "name": "approve",
      "outputs": [],
      "stateMutability": "nonpayable",
      "type": "function"
    },
    {
      "inputs": [
        {
          "internalType": "address",
          "name": "owner",
          "type": "address"
        }
      ],
      "name": "balanceOf",
      "outputs": [
        {
          "internalType": "uint256",
          "name": "",
          "type": "uint256"
        }
      ],
      "stateMutability": "view",
      "type": "function"
    },
    {
      "inputs": [],
      "name": "baseTokenURI",
      "outputs": [
        {
          "internalType": "string",
          "name": "baseUri",
          "type": "string"
        }
      ],
      "stateMutability": "view",
      "type": "function"
    },
    {
      "inputs": [
        {
          "internalType": "uint256",
          "name": "tokenId",
          "type": "uint256"
        }
      ],
      "name": "getApproved",
      "outputs": [
        {
          "internalType": "address",
          "name": "",
          "type": "address"
        }
      ],
      "stateMutability": "view",
      "type": "function"
    },
    {
      "inputs": [
        {
          "internalType": "uint256",
          "name": "_id",
          "type": "uint256"
        }
      ],
      "name": "getFee",
      "outputs": [
        {
          "internalType": "uint256",
          "name": "fee",
          "type": "uint256"
        }
      ],
      "stateMutability": "view",
      "type": "function"
    },
    {
      "inputs": [],
      "name": "getMinter",
      "outputs": [
        {
          "internalType": "address",
          "name": "",
          "type": "address"
        }
      ],
      "stateMutability": "view",
      "type": "function"
    },
    {
      "inputs": [
        {
          "internalType": "address",
          "name": "owner",
          "type": "address"
        },
        {
          "internalType": "address",
          "name": "operator",
          "type": "address"
        }
      ],
      "name": "isApprovedForAll",
      "outputs": [
        {
          "internalType": "bool",
          "name": "",
          "type": "bool"
        }
      ],
      "stateMutability": "view",
      "type": "function"
    },
    {
      "inputs": [
        {
          "internalType": "address",
          "name": "receiver",
          "type": "address"
        },
        {
          "internalType": "uint256",
          "name": "tokenHash",
          "type": "uint256"
        }
      ],
      "name": "mint",
      "outputs": [],
      "stateMutability": "nonpayable",
      "type": "function"
    },
    {
      "inputs": [],
      "name": "name",
      "outputs": [
        {
          "internalType": "string",
          "name": "",
          "type": "string"
        }
      ],
      "stateMutability": "view",
      "type": "function"
    },
    {
      "inputs": [],
      "name": "owner",
      "outputs": [
        {
          "internalType": "address",
          "name": "",
          "type": "address"
        }
      ],
      "stateMutability": "view",
      "type": "function"
    },
    {
      "inputs": [
        {
          "internalType": "uint256",
          "name": "tokenId",
          "type": "uint256"
        }
      ],
      "name": "ownerOf",
      "outputs": [
        {
          "internalType": "address",
          "name": "",
          "type": "address"
        }
      ],
      "stateMutability": "view",
      "type": "function"
    },
    {
      "inputs": [
        {
          "internalType": "address",
          "name": "owner",
          "type": "address"
        },
        {
          "internalType": "uint256[]",
          "name": "tokenIds",
          "type": "uint256[]"
        }
      ],
      "name": "owns",
      "outputs": [
        {
          "internalType": "bool[]",
          "name": "_result",
          "type": "bool[]"
        }
      ],
      "stateMutability": "view",
      "type": "function"
    },
    {
      "inputs": [],
      "name": "proxyRegistryAddress",
      "outputs": [
        {
          "internalType": "address",
          "name": "",
          "type": "address"
        }
      ],
      "stateMutability": "view",
      "type": "function"
    },
    {
      "inputs": [],
      "name": "renounceOwnership",
      "outputs": [],
      "stateMutability": "nonpayable",
      "type": "function"
    },
    {
      "inputs": [
        {
          "internalType": "uint256",
          "name": "_tokenId",
          "type": "uint256"
        },
        {
          "internalType": "uint256",
          "name": "_salePrice",
          "type": "uint256"
        }
      ],
      "name": "royaltyInfo",
      "outputs": [
        {
          "internalType": "address",
          "name": "receiver",
          "type": "address"
        },
        {
          "internalType": "uint256",
          "name": "royaltyAmount",
          "type": "uint256"
        }
      ],
      "stateMutability": "view",
      "type": "function"
    },
    {
      "inputs": [
        {
          "internalType": "uint256",
          "name": "_id",
          "type": "uint256"
        }
      ],
      "name": "royaltyOwner",
      "outputs": [
        {
          "internalType": "address",
          "name": "owner",
          "type": "address"
        }
      ],
      "stateMutability": "view",
      "type": "function"
    },
    {
      "inputs": [
        {
          "internalType": "address",
          "name": "from",
          "type": "address"
        },
        {
          "internalType": "address",
          "name": "to",
          "type": "address"
        },
        {
          "internalType": "uint256",
          "name": "tokenId",
          "type": "uint256"
        }
      ],
      "name": "safeTransferFrom",
      "outputs": [],
      "stateMutability": "nonpayable",
      "type": "function"
    },
    {
      "inputs": [
        {
          "internalType": "address",
          "name": "from",
          "type": "address"
        },
        {
          "internalType": "address",
          "name": "to",
          "type": "address"
        },
        {
          "internalType": "uint256",
          "name": "tokenId",
          "type": "uint256"
        },
        {
          "internalType": "bytes",
          "name": "_data",
          "type": "bytes"
        }
      ],
      "name": "safeTransferFrom",
      "outputs": [],
      "stateMutability": "nonpayable",
      "type": "function"
    },
    {
      "inputs": [
        {
          "internalType": "address",
          "name": "operator",
          "type": "address"
        },
        {
          "internalType": "bool",
          "name": "approved",
          "type": "bool"
        }
      ],
      "name": "setApprovalForAll",
      "outputs": [],
      "stateMutability": "nonpayable",
      "type": "function"
    },
    {
      "inputs": [
        {
          "internalType": "string",
          "name": "_baseU",
          "type": "string"
        }
      ],
      "name": "setBaseTokenURI",
      "outputs": [],
      "stateMutability": "nonpayable",
      "type": "function"
    },
    {
      "inputs": [
        {
          "internalType": "uint256",
          "name": "_id",
          "type": "uint256"
        },
        {
          "internalType": "uint256",
          "name": "_fee",
          "type": "uint256"
        }
      ],
      "name": "setFee",
      "outputs": [],
      "stateMutability": "nonpayable",
      "type": "function"
    },
    {
      "inputs": [
        {
          "internalType": "address",
          "name": "minter_",
          "type": "address"
        }
      ],
      "name": "setMinter",
      "outputs": [],
      "stateMutability": "nonpayable",
      "type": "function"
    },
    {
      "inputs": [
        {
          "internalType": "address",
          "name": "valu",
          "type": "address"
        }
      ],
      "name": "setProxyRegistryAddress",
      "outputs": [],
      "stateMutability": "nonpayable",
      "type": "function"
    },
    {
      "inputs": [
        {
          "internalType": "bytes4",
          "name": "interfaceId",
          "type": "bytes4"
        }
      ],
      "name": "supportsInterface",
      "outputs": [
        {
          "internalType": "bool",
          "name": "supportsIface",
          "type": "bool"
        }
      ],
      "stateMutability": "view",
      "type": "function"
    },
    {
      "inputs": [],
      "name": "symbol",
      "outputs": [
        {
          "internalType": "string",
          "name": "",
          "type": "string"
        }
      ],
      "stateMutability": "view",
      "type": "function"
    },
    {
      "inputs": [
        {
          "internalType": "uint256",
          "name": "index",
          "type": "uint256"
        }
      ],
      "name": "tokenByIndex",
      "outputs": [
        {
          "internalType": "uint256",
          "name": "",
          "type": "uint256"
        }
      ],
      "stateMutability": "view",
      "type": "function"
    },
    {
      "inputs": [
        {
          "internalType": "address",
          "name": "owner",
          "type": "address"
        },
        {
          "internalType": "uint256",
          "name": "index",
          "type": "uint256"
        }
      ],
      "name": "tokenOfOwnerByIndex",
      "outputs": [
        {
          "internalType": "uint256",
          "name": "",
          "type": "uint256"
        }
      ],
      "stateMutability": "view",
      "type": "function"
    },
    {
      "inputs": [
        {
          "internalType": "uint256",
          "name": "_tokenId",
          "type": "uint256"
        }
      ],
      "name": "tokenURI",
      "outputs": [
        {
          "internalType": "string",
          "name": "_tokenUri",
          "type": "string"
        }
      ],
      "stateMutability": "view",
      "type": "function"
    },
    {
      "inputs": [],
      "name": "totalSupply",
      "outputs": [
        {
          "internalType": "uint256",
          "name": "",
          "type": "uint256"
        }
      ],
      "stateMutability": "view",
      "type": "function"
    },
    {
      "inputs": [
        {
          "internalType": "address",
          "name": "from",
          "type": "address"
        },
        {
          "internalType": "address",
          "name": "to",
          "type": "address"
        },
        {
          "internalType": "uint256",
          "name": "tokenId",
          "type": "uint256"
        }
      ],
      "name": "transferFrom",
      "outputs": [],
      "stateMutability": "nonpayable",
      "type": "function"
    },
    {
      "inputs": [
        {
          "internalType": "uint256",
          "name": "_id",
          "type": "uint256"
        },
        {
          "internalType": "address",
          "name": "_newOwner",
          "type": "address"
        }
      ],
      "name": "transferOwnership",
      "outputs": [],
      "stateMutability": "nonpayable",
      "type": "function"
    },
    {
      "inputs": [
        {
          "internalType": "address",
          "name": "newOwner",
          "type": "address"
        }
      ],
      "name": "transferOwnership",
      "outputs": [],
      "stateMutability": "nonpayable",
      "type": "function"
    }
  ],
  "transactionHash": "0xf4dd2af8adfcda52943ace0c4cb87a51c5a115b47afcc2efd14b1a4d3c5a1af2",
  "args": [
    "Scary Devils",
    "DEVILS",
    10000,
    "http://demonft.vtail.com/wp-json/api/token/"
  ],
  "solcInputHash": "c5127deb3ea5cf9f500571c1e2407bf4",
  "bytecode": "0x60806040523480156200001157600080fd5b5060405162002cfd38038062002cfd83398101604081905262000034916200025a565b8351849084906200004d90600090602085019062000101565b5080516200006390600190602084019062000101565b505050620000806200007a620000ab60201b60201c565b620000af565b601082905580516200009a90600d90602084019062000101565b505060016011555062000344915050565b3390565b600c80546001600160a01b038381166001600160a01b0319831681179093556040519116919082907f8be0079c531659141344cd1fd0a4f28419497f9722a3daafe3b4186f6b6457e090600090a35050565b8280546200010f90620002f1565b90600052602060002090601f0160209004810192826200013357600085556200017e565b82601f106200014e57805160ff19168380011785556200017e565b828001600101855582156200017e579182015b828111156200017e57825182559160200191906001019062000161565b506200018c92915062000190565b5090565b5b808211156200018c576000815560010162000191565b600082601f830112620001b8578081fd5b81516001600160401b0380821115620001d557620001d56200032e565b604051601f8301601f19908116603f011681019082821181831017156200020057620002006200032e565b816040528381526020925086838588010111156200021c578485fd5b8491505b838210156200023f578582018301518183018401529082019062000220565b838211156200025057848385830101525b9695505050505050565b6000806000806080858703121562000270578384fd5b84516001600160401b038082111562000287578586fd5b6200029588838901620001a7565b95506020870151915080821115620002ab578485fd5b620002b988838901620001a7565b9450604087015193506060870151915080821115620002d6578283fd5b50620002e587828801620001a7565b91505092959194509250565b600181811c908216806200030657607f821691505b602082108114156200032857634e487b7160e01b600052602260045260246000fd5b50919050565b634e487b7160e01b600052604160045260246000fd5b6129a980620003546000396000f3fe608060405234801561001057600080fd5b50600436106102265760003560e01c806370a082311161012a578063c87b56dd116100bd578063e985e9c51161008c578063f366751711610071578063f3667517146104bc578063fca3b5aa146104cd578063fcee45f4146104e057600080fd5b8063e985e9c514610496578063f2fde38b146104a957600080fd5b8063c87b56dd14610457578063cd7c03261461046a578063d26ea6c01461047b578063d547cfb71461048e57600080fd5b806395d89b41116100f957806395d89b4114610409578063a22cb46514610411578063b151683114610424578063b88d4fde1461044457600080fd5b806370a08231146103c8578063715018a6146103db5780638a86993b146103e35780638da5cb5b146103f857600080fd5b80632a55205a116101bd57806340c10f191161018c5780634f6ccce7116101715780634f6ccce71461038f57806352f7c988146103a25780636352211e146103b557600080fd5b806340c10f191461036957806342842e0e1461037c57600080fd5b80632a55205a146103095780632f745c591461033b57806330176e131461034e5780633eaaf86b1461036157600080fd5b806318160ddd116101f957806318160ddd146102a857806323b872dd146102ba57806326fc0209146102cd57806329507f73146102f657600080fd5b806301ffc9a71461022b57806306fdde0314610253578063081812fc14610268578063095ea7b314610293575b600080fd5b61023e61023936600461252b565b610500565b60405190151581526020015b60405180910390f35b61025b610544565b60405161024a91906127ca565b61027b6102763660046125c5565b6105d6565b6040516001600160a01b03909116815260200161024a565b6102a66102a1366004612500565b610681565b005b6008545b60405190815260200161024a565b6102a66102c8366004612355565b6107b3565b61027b6102db3660046125c5565b6000908152600a60205260409020546001600160a01b031690565b6102a66103043660046125dd565b61083a565b61031c610317366004612601565b610967565b604080516001600160a01b03909316835260208301919091520161024a565b6102ac610349366004612500565b610a7b565b6102a661035c36600461257f565b610b23565b6102ac610b94565b6102a6610377366004612500565b610baa565b6102a661038a366004612355565b610cef565b6102ac61039d3660046125c5565b610d0a565b6102a66103b0366004612601565b610dbc565b61027b6103c33660046125c5565b610eaa565b6102ac6103d6366004612301565b610f35565b6102a6610fcf565b6103eb611035565b60405161024a9190612792565b600c546001600160a01b031661027b565b61025b61108c565b6102a661041f3660046124cf565b61109b565b610437610432366004612412565b611160565b60405161024a919061274c565b6102a6610452366004612395565b61124f565b61025b6104653660046125c5565b6112dd565b600e546001600160a01b031661027b565b6102a6610489366004612301565b611311565b61025b61139a565b61023e6104a436600461231d565b6113a9565b6102a66104b7366004612301565b6114a4565b600f546001600160a01b031661027b565b6102a66104db366004612301565b611586565b6102ac6104ee3660046125c5565b6000908152600b602052604090205490565b60006001600160e01b031982167f2a55205a00000000000000000000000000000000000000000000000000000000148061053e575061053e8261160e565b92915050565b6060600080546105539061289c565b80601f016020809104026020016040519081016040528092919081815260200182805461057f9061289c565b80156105cc5780601f106105a1576101008083540402835291602001916105cc565b820191906000526020600020905b8154815290600101906020018083116105af57829003601f168201915b5050505050905090565b6000818152600260205260408120546001600160a01b03166106655760405162461bcd60e51b815260206004820152602c60248201527f4552433732313a20617070726f76656420717565727920666f72206e6f6e657860448201527f697374656e7420746f6b656e000000000000000000000000000000000000000060648201526084015b60405180910390fd5b506000908152600460205260409020546001600160a01b031690565b600061068c82610eaa565b9050806001600160a01b0316836001600160a01b031614156107165760405162461bcd60e51b815260206004820152602160248201527f4552433732313a20617070726f76616c20746f2063757272656e74206f776e6560448201527f7200000000000000000000000000000000000000000000000000000000000000606482015260840161065c565b336001600160a01b0382161480610732575061073281336113a9565b6107a45760405162461bcd60e51b815260206004820152603860248201527f4552433732313a20617070726f76652063616c6c6572206973206e6f74206f7760448201527f6e6572206e6f7220617070726f76656420666f7220616c6c0000000000000000606482015260840161065c565b6107ae838361164c565b505050565b6107bd33826116c7565b61082f5760405162461bcd60e51b815260206004820152603160248201527f4552433732313a207472616e736665722063616c6c6572206973206e6f74206f60448201527f776e6572206e6f7220617070726f766564000000000000000000000000000000606482015260840161065c565b6107ae8383836117af565b6000828152600a602052604090205482906001600160a01b031633146108c85760405162461bcd60e51b815260206004820152602a60248201527f4f6e6c7920746865206f776e65722063616e206d6f646966792074686520726f60448201527f79616c7479206665657300000000000000000000000000000000000000000000606482015260840161065c565b82158015906108df57506001600160a01b03821615155b61092b5760405162461bcd60e51b815260206004820152601d60248201527f496e76616c696420746f6b656e206964206f72206e6577206f776e6572000000604482015260640161065c565b506000918252600a6020526040909120805473ffffffffffffffffffffffffffffffffffffffff19166001600160a01b03909216919091179055565b600080600083116109e05760405162461bcd60e51b815260206004820152602160248201527f53616c65207072696365206d7573742062652067726561746572207468616e2060448201527f3000000000000000000000000000000000000000000000000000000000000000606482015260840161065c565b60008411610a305760405162461bcd60e51b815260206004820152601660248201527f546f6b656e204964206d7573742062652076616c696400000000000000000000604482015260640161065c565b6000848152600a6020908152604080832054600b909252909120546001600160a01b0390911692508390610a6890620f424090612826565b610a72919061283a565b90509250929050565b6000610a8683610f35565b8210610afa5760405162461bcd60e51b815260206004820152602b60248201527f455243373231456e756d657261626c653a206f776e657220696e646578206f7560448201527f74206f6620626f756e6473000000000000000000000000000000000000000000606482015260840161065c565b506001600160a01b03919091166000908152600660209081526040808320938352929052205490565b600c546001600160a01b03163314610b7d5760405162461bcd60e51b815260206004820181905260248201527f4f776e61626c653a2063616c6c6572206973206e6f7420746865206f776e6572604482015260640161065c565b8051610b9090600d906020840190612210565b5050565b60006001601154610ba59190612859565b905090565b600f546001600160a01b03163314610c045760405162461bcd60e51b815260206004820152601f60248201527f4f6e6c7920746865206d696e7465722063616e206d696e7420746f6b656e7300604482015260640161065c565b601054610c0f610b94565b1115610c5d5760405162461bcd60e51b815260206004820152601360248201527f4d696e74696e67206d6178207265616368656400000000000000000000000000604482015260640161065c565b6000818152600a60209081526040808320805473ffffffffffffffffffffffffffffffffffffffff19166001600160a01b038716179055600b9091528120611d4c9055601280546001810182559082527fbb8a6a4669ba250d26cd7a459eca9d215f8307e33aebe50379bc5a3617ec3444018290556011805491610ce0836128d7565b9190505550610b908282611994565b6107ae8383836040518060200160405280600081525061124f565b6000610d1560085490565b8210610d895760405162461bcd60e51b815260206004820152602c60248201527f455243373231456e756d657261626c653a20676c6f62616c20696e646578206f60448201527f7574206f6620626f756e64730000000000000000000000000000000000000000606482015260840161065c565b60088281548110610daa57634e487b7160e01b600052603260045260246000fd5b90600052602060002001549050919050565b6000828152600a602052604090205482906001600160a01b03163314610e4a5760405162461bcd60e51b815260206004820152602a60248201527f4f6e6c7920746865206f776e65722063616e206d6f646966792074686520726f60448201527f79616c7479206665657300000000000000000000000000000000000000000000606482015260840161065c565b82610e975760405162461bcd60e51b815260206004820152601260248201527f4665652063616e6e6f74206265207a65726f0000000000000000000000000000604482015260640161065c565b506000918252600b602052604090912055565b6000818152600260205260408120546001600160a01b03168061053e5760405162461bcd60e51b815260206004820152602960248201527f4552433732313a206f776e657220717565727920666f72206e6f6e657869737460448201527f656e7420746f6b656e0000000000000000000000000000000000000000000000606482015260840161065c565b60006001600160a01b038216610fb35760405162461bcd60e51b815260206004820152602a60248201527f4552433732313a2062616c616e636520717565727920666f7220746865207a6560448201527f726f206164647265737300000000000000000000000000000000000000000000606482015260840161065c565b506001600160a01b031660009081526003602052604090205490565b600c546001600160a01b031633146110295760405162461bcd60e51b815260206004820181905260248201527f4f776e61626c653a2063616c6c6572206973206e6f7420746865206f776e6572604482015260640161065c565b6110336000611aef565b565b606060128054806020026020016040519081016040528092919081815260200182805480156105cc57602002820191906000526020600020905b81548152602001906001019080831161106f575050505050905090565b6060600180546105539061289c565b6001600160a01b0382163314156110f45760405162461bcd60e51b815260206004820152601960248201527f4552433732313a20617070726f766520746f2063616c6c657200000000000000604482015260640161065c565b3360008181526005602090815260408083206001600160a01b03871680855290835292819020805460ff191686151590811790915590519081529192917f17307eab39ab6107e8899845ad3d59bd9653f200f220920489ca2b5937696c31910160405180910390a35050565b6060815167ffffffffffffffff81111561118a57634e487b7160e01b600052604160045260246000fd5b6040519080825280602002602001820160405280156111b3578160200160208202803683370190505b50905060005b825181101561124857836001600160a01b03166111fc8483815181106111ef57634e487b7160e01b600052603260045260246000fd5b6020026020010151610eaa565b6001600160a01b03161482828151811061122657634e487b7160e01b600052603260045260246000fd5b9115156020928302919091019091015280611240816128d7565b9150506111b9565b5092915050565b61125933836116c7565b6112cb5760405162461bcd60e51b815260206004820152603160248201527f4552433732313a207472616e736665722063616c6c6572206973206e6f74206f60448201527f776e6572206e6f7220617070726f766564000000000000000000000000000000606482015260840161065c565b6112d784848484611b4e565b50505050565b6060600d6112ea83611bd7565b6040516020016112fb92919061266a565b6040516020818303038152906040529050919050565b600c546001600160a01b0316331461136b5760405162461bcd60e51b815260206004820181905260248201527f4f776e61626c653a2063616c6c6572206973206e6f7420746865206f776e6572604482015260640161065c565b600e805473ffffffffffffffffffffffffffffffffffffffff19166001600160a01b0392909216919091179055565b6060600d80546105539061289c565b600e546000906001600160a01b03161561147357600e546040517fc45527910000000000000000000000000000000000000000000000000000000081526001600160a01b03858116600483015291821691841690829063c45527919060240160206040518083038186803b15801561142057600080fd5b505afa158015611434573d6000803e3d6000fd5b505050506040513d601f19601f820116820180604052508101906114589190612563565b6001600160a01b0316141561147157600191505061053e565b505b6001600160a01b0380841660009081526005602090815260408083209386168352929052205460ff165b9392505050565b600c546001600160a01b031633146114fe5760405162461bcd60e51b815260206004820181905260248201527f4f776e61626c653a2063616c6c6572206973206e6f7420746865206f776e6572604482015260640161065c565b6001600160a01b03811661157a5760405162461bcd60e51b815260206004820152602660248201527f4f776e61626c653a206e6577206f776e657220697320746865207a65726f206160448201527f6464726573730000000000000000000000000000000000000000000000000000606482015260840161065c565b61158381611aef565b50565b600f546001600160a01b0316156115df5760405162461bcd60e51b815260206004820152600960248201527f696d6d757461626c650000000000000000000000000000000000000000000000604482015260640161065c565b600f805473ffffffffffffffffffffffffffffffffffffffff19166001600160a01b0392909216919091179055565b60006001600160e01b031982167f2a55205a00000000000000000000000000000000000000000000000000000000148061053e575061053e82611d25565b6000818152600460205260409020805473ffffffffffffffffffffffffffffffffffffffff19166001600160a01b038416908117909155819061168e82610eaa565b6001600160a01b03167f8c5be1e5ebec7d5bd14f71427d1e84f3dd0314c0f7b2291e5b200ac8c7c3b92560405160405180910390a45050565b6000818152600260205260408120546001600160a01b03166117515760405162461bcd60e51b815260206004820152602c60248201527f4552433732313a206f70657261746f7220717565727920666f72206e6f6e657860448201527f697374656e7420746f6b656e0000000000000000000000000000000000000000606482015260840161065c565b600061175c83610eaa565b9050806001600160a01b0316846001600160a01b031614806117975750836001600160a01b031661178c846105d6565b6001600160a01b0316145b806117a757506117a781856113a9565b949350505050565b826001600160a01b03166117c282610eaa565b6001600160a01b03161461183e5760405162461bcd60e51b815260206004820152602960248201527f4552433732313a207472616e73666572206f6620746f6b656e2074686174206960448201527f73206e6f74206f776e0000000000000000000000000000000000000000000000606482015260840161065c565b6001600160a01b0382166118b95760405162461bcd60e51b8152602060048201526024808201527f4552433732313a207472616e7366657220746f20746865207a65726f2061646460448201527f7265737300000000000000000000000000000000000000000000000000000000606482015260840161065c565b6118c4838383611d63565b6118cf60008261164c565b6001600160a01b03831660009081526003602052604081208054600192906118f8908490612859565b90915550506001600160a01b038216600090815260036020526040812080546001929061192690849061280e565b9091555050600081815260026020526040808220805473ffffffffffffffffffffffffffffffffffffffff19166001600160a01b0386811691821790925591518493918716917fddf252ad1be2c89b69c2b068fc378daa952ba7f163c4a11628f55a4df523b3ef91a4505050565b6001600160a01b0382166119ea5760405162461bcd60e51b815260206004820181905260248201527f4552433732313a206d696e7420746f20746865207a65726f2061646472657373604482015260640161065c565b6000818152600260205260409020546001600160a01b031615611a4f5760405162461bcd60e51b815260206004820152601c60248201527f4552433732313a20746f6b656e20616c7265616479206d696e74656400000000604482015260640161065c565b611a5b60008383611d63565b6001600160a01b0382166000908152600360205260408120805460019290611a8490849061280e565b9091555050600081815260026020526040808220805473ffffffffffffffffffffffffffffffffffffffff19166001600160a01b03861690811790915590518392907fddf252ad1be2c89b69c2b068fc378daa952ba7f163c4a11628f55a4df523b3ef908290a45050565b600c80546001600160a01b0383811673ffffffffffffffffffffffffffffffffffffffff19831681179093556040519116919082907f8be0079c531659141344cd1fd0a4f28419497f9722a3daafe3b4186f6b6457e090600090a35050565b611b598484846117af565b611b6584848484611d6e565b6112d75760405162461bcd60e51b815260206004820152603260248201527f4552433732313a207472616e7366657220746f206e6f6e20455243373231526560448201527f63656976657220696d706c656d656e7465720000000000000000000000000000606482015260840161065c565b606081611c1757505060408051808201909152600181527f3000000000000000000000000000000000000000000000000000000000000000602082015290565b8160005b8115611c415780611c2b816128d7565b9150611c3a9050600a83612826565b9150611c1b565b60008167ffffffffffffffff811115611c6a57634e487b7160e01b600052604160045260246000fd5b6040519080825280601f01601f191660200182016040528015611c94576020820181803683370190505b5090505b84156117a757611ca9600183612859565b9150611cb6600a866128f2565b611cc190603061280e565b60f81b818381518110611ce457634e487b7160e01b600052603260045260246000fd5b60200101907effffffffffffffffffffffffffffffffffffffffffffffffffffffffffffff1916908160001a905350611d1e600a86612826565b9450611c98565b60006001600160e01b031982167f780e9d6300000000000000000000000000000000000000000000000000000000148061053e575061053e82611f03565b6107ae838383611f9e565b60006001600160a01b0384163b15611ef8576040517f150b7a020000000000000000000000000000000000000000000000000000000081526001600160a01b0385169063150b7a0290611dcb903390899088908890600401612710565b602060405180830381600087803b158015611de557600080fd5b505af1925050508015611e15575060408051601f3d908101601f19168201909252611e1291810190612547565b60015b611ec5573d808015611e43576040519150601f19603f3d011682016040523d82523d6000602084013e611e48565b606091505b508051611ebd5760405162461bcd60e51b815260206004820152603260248201527f4552433732313a207472616e7366657220746f206e6f6e20455243373231526560448201527f63656976657220696d706c656d656e7465720000000000000000000000000000606482015260840161065c565b805181602001fd5b6001600160e01b0319167f150b7a02000000000000000000000000000000000000000000000000000000001490506117a7565b506001949350505050565b60006001600160e01b031982167f80ac58cd000000000000000000000000000000000000000000000000000000001480611f6657506001600160e01b031982167f5b5e139f00000000000000000000000000000000000000000000000000000000145b8061053e57507f01ffc9a7000000000000000000000000000000000000000000000000000000006001600160e01b031983161461053e565b6001600160a01b038316611ff957611ff481600880546000838152600960205260408120829055600182018355919091527ff3f7a9fe364faab93b216da50a3214154f22a0a2b415b23a84c8169e8b636ee30155565b61201c565b816001600160a01b0316836001600160a01b03161461201c5761201c8382612056565b6001600160a01b038216612033576107ae816120f3565b826001600160a01b0316826001600160a01b0316146107ae576107ae82826121cc565b6000600161206384610f35565b61206d9190612859565b6000838152600760205260409020549091508082146120c0576001600160a01b03841660009081526006602090815260408083208584528252808320548484528184208190558352600790915290208190555b5060009182526007602090815260408084208490556001600160a01b039094168352600681528383209183525290812055565b60085460009061210590600190612859565b6000838152600960205260408120546008805493945090928490811061213b57634e487b7160e01b600052603260045260246000fd5b90600052602060002001549050806008838154811061216a57634e487b7160e01b600052603260045260246000fd5b60009182526020808320909101929092558281526009909152604080822084905585825281205560088054806121b057634e487b7160e01b600052603160045260246000fd5b6001900381819060005260206000200160009055905550505050565b60006121d783610f35565b6001600160a01b039093166000908152600660209081526040808320868452825280832085905593825260079052919091209190915550565b82805461221c9061289c565b90600052602060002090601f01602090048101928261223e5760008555612284565b82601f1061225757805160ff1916838001178555612284565b82800160010185558215612284579182015b82811115612284578251825591602001919060010190612269565b50612290929150612294565b5090565b5b808211156122905760008155600101612295565b600067ffffffffffffffff8311156122c3576122c3612932565b6122d66020601f19601f860116016127dd565b90508281528383830111156122ea57600080fd5b828260208301376000602084830101529392505050565b600060208284031215612312578081fd5b813561149d81612948565b6000806040838503121561232f578081fd5b823561233a81612948565b9150602083013561234a81612948565b809150509250929050565b600080600060608486031215612369578081fd5b833561237481612948565b9250602084013561238481612948565b929592945050506040919091013590565b600080600080608085870312156123aa578081fd5b84356123b581612948565b935060208501356123c581612948565b925060408501359150606085013567ffffffffffffffff8111156123e7578182fd5b8501601f810187136123f7578182fd5b612406878235602084016122a9565b91505092959194509250565b60008060408385031215612424578182fd5b823561242f81612948565b915060208381013567ffffffffffffffff8082111561244c578384fd5b818601915086601f83011261245f578384fd5b81358181111561247157612471612932565b8060051b91506124828483016127dd565b8181528481019084860184860187018b101561249c578788fd5b8795505b838610156124be5780358352600195909501949186019186016124a0565b508096505050505050509250929050565b600080604083850312156124e1578182fd5b82356124ec81612948565b91506020830135801515811461234a578182fd5b60008060408385031215612512578182fd5b823561251d81612948565b946020939093013593505050565b60006020828403121561253c578081fd5b813561149d8161295d565b600060208284031215612558578081fd5b815161149d8161295d565b600060208284031215612574578081fd5b815161149d81612948565b600060208284031215612590578081fd5b813567ffffffffffffffff8111156125a6578182fd5b8201601f810184136125b6578182fd5b6117a7848235602084016122a9565b6000602082840312156125d6578081fd5b5035919050565b600080604083850312156125ef578182fd5b82359150602083013561234a81612948565b60008060408385031215612613578182fd5b50508035926020909101359150565b6000815180845261263a816020860160208601612870565b601f01601f19169290920160200192915050565b60008151612660818560208601612870565b9290920192915050565b600080845482600182811c91508083168061268657607f831692505b60208084108214156126a657634e487b7160e01b87526022600452602487fd5b8180156126ba57600181146126cb576126f7565b60ff198616895284890196506126f7565b60008b815260209020885b868110156126ef5781548b8201529085019083016126d6565b505084890196505b505050505050612707818561264e565b95945050505050565b60006001600160a01b038087168352808616602084015250836040830152608060608301526127426080830184612622565b9695505050505050565b6020808252825182820181905260009190848201906040850190845b81811015612786578351151583529284019291840191600101612768565b50909695505050505050565b6020808252825182820181905260009190848201906040850190845b81811015612786578351835292840192918401916001016127ae565b60208152600061149d6020830184612622565b604051601f8201601f1916810167ffffffffffffffff8111828210171561280657612806612932565b604052919050565b6000821982111561282157612821612906565b500190565b6000826128355761283561291c565b500490565b600081600019048311821515161561285457612854612906565b500290565b60008282101561286b5761286b612906565b500390565b60005b8381101561288b578181015183820152602001612873565b838111156112d75750506000910152565b600181811c908216806128b057607f821691505b602082108114156128d157634e487b7160e01b600052602260045260246000fd5b50919050565b60006000198214156128eb576128eb612906565b5060010190565b6000826129015761290161291c565b500690565b634e487b7160e01b600052601160045260246000fd5b634e487b7160e01b600052601260045260246000fd5b634e487b7160e01b600052604160045260246000fd5b6001600160a01b038116811461158357600080fd5b6001600160e01b03198116811461158357600080fdfea264697066735822122012e5064477662dd936288c16fc0277e244a3ba5ef3efedd5a3d6972b5eb930ee64736f6c63430008040033",
  "devdoc": {
    "details": "see  [EIP-20: Basic token standard]",
    "kind": "dev",
    "methods": {
      "_totalSupply()": {
        "details": "mint an NFT of the given id to the target address",
        "returns": {
          "totalSupply": "the total supply of the token"
        }
      },
      "approve(address,uint256)": {
        "details": "See {IERC721-approve}."
      },
      "balanceOf(address)": {
        "details": "See {IERC721-balanceOf}."
      },
      "baseTokenURI()": {
        "returns": {
          "baseUri": "- the base URI"
        }
      },
      "constructor": {
        "details": "Initializes the contract with the minter, the mintingMax and the total supply.",
        "params": {
          "_mintingMax": "the total number of tokens  to be minted",
          "_uri": "the base uri for the token",
          "name": "the token name",
          "symbol": "the token symbol"
        }
      },
      "getApproved(uint256)": {
        "details": "See {IERC721-getApproved}."
      },
      "getFee(uint256)": {
        "params": {
          "_id": "- id of the token hash "
        },
        "returns": {
          "fee": "- the fee"
        }
      },
      "getMinter()": {
        "details": "get the allowed minter"
      },
      "mint(address,uint256)": {
        "details": "mint an NFT of the given id to the target address",
        "params": {
          "receiver": "the tokenHash to mint them"
        }
      },
      "name()": {
        "details": "See {IERC721Metadata-name}."
      },
      "owner()": {
        "details": "Returns the address of the current owner."
      },
      "ownerOf(uint256)": {
        "details": "See {IERC721-ownerOf}."
      },
      "proxyRegistryAddress()": {
        "returns": {
          "_0": "baseUri - the base URI"
        }
      },
      "renounceOwnership()": {
        "details": "Leaves the contract without owner. It will not be possible to call `onlyOwner` functions anymore. Can only be called by the current owner. NOTE: Renouncing ownership will leave the contract without an owner, thereby removing any functionality that is only available to the owner."
      },
      "royaltyInfo(uint256,uint256)": {
        "details": "ERC2981 - return the receiver and royalty payment given the id and sale price",
        "params": {
          "_salePrice": "the price of the token",
          "_tokenId": "the id of the token"
        },
        "returns": {
          "receiver": "the receiver",
          "royaltyAmount": "the royalty payment"
        }
      },
      "royaltyOwner(uint256)": {
        "params": {
          "_id": "- id of the token hash "
        },
        "returns": {
          "owner": "- the royalty owner"
        }
      },
      "safeTransferFrom(address,address,uint256)": {
        "details": "See {IERC721-safeTransferFrom}."
      },
      "safeTransferFrom(address,address,uint256,bytes)": {
        "details": "See {IERC721-safeTransferFrom}."
      },
      "setApprovalForAll(address,bool)": {
        "details": "See {IERC721-setApprovalForAll}."
      },
      "setFee(uint256,uint256)": {
        "params": {
          "_fee": "- the fee permilliage to set",
          "_id": "- id of the token hash "
        }
      },
      "setMinter(address)": {
        "details": "set the allowed minter"
      },
      "supportsInterface(bytes4)": {
        "params": {
          "interfaceId": "- the interface id to check"
        },
        "returns": {
          "supportsIface": "- whether the interface is supported"
        }
      },
      "symbol()": {
        "details": "See {IERC721Metadata-symbol}."
      },
      "tokenByIndex(uint256)": {
        "details": "See {IERC721Enumerable-tokenByIndex}."
      },
      "tokenOfOwnerByIndex(address,uint256)": {
        "details": "See {IERC721Enumerable-tokenOfOwnerByIndex}."
      },
      "tokenURI(uint256)": {
        "params": {
          "_tokenId": "- the interface id to check"
        },
        "returns": {
          "_tokenUri": "- the token  URI"
        }
      },
      "totalSupply()": {
        "details": "See {IERC721Enumerable-totalSupply}."
      },
      "transferFrom(address,address,uint256)": {
        "details": "See {IERC721-transferFrom}."
      },
      "transferOwnership(address)": {
        "details": "Transfers ownership of the contract to a new account (`newOwner`). Can only be called by the current owner."
      },
      "transferOwnership(uint256,address)": {
        "params": {
          "_id": "- id of the token hash ",
          "_newOwner": "- address of the new owners "
        }
      }
    },
    "title": "ERC721 contract for VTail.com",
    "version": 1
  },
  "userdoc": {
    "kind": "user",
    "methods": {
      "baseTokenURI()": {
        "notice": "the base token URI"
      },
      "getFee(uint256)": {
        "notice": "get the fee permilliage for a token hash"
      },
      "isApprovedForAll(address,address)": {
        "notice": "Override isApprovedForAll to whitelist user's OpenSea proxy accounts to enable gas-less listings."
      },
      "proxyRegistryAddress()": {
        "notice": "the base token URI"
      },
      "royaltyOwner(uint256)": {
        "notice": "get the royalty receiver for a token hash"
      },
      "setBaseTokenURI(string)": {
        "notice": "the base token URI"
      },
      "setFee(uint256,uint256)": {
        "notice": "set the fee permilliage for a token hash"
      },
      "setProxyRegistryAddress(address)": {
        "notice": "the base token URI"
      },
      "supportsInterface(bytes4)": {
        "notice": "ERC165 interface responder for this contract"
      },
      "tokenURI(uint256)": {
        "notice": "the base token URI"
      },
      "transferOwnership(uint256,address)": {
        "notice": "get the royalty receiver for a token hash"
      }
    },
    "version": 1
  },
  "storageLayout": {
    "storage": [
      {
        "astId": 959,
        "contract": "src/VTailERC721.sol:VTailERC721",
        "label": "_name",
        "offset": 0,
        "slot": "0",
        "type": "t_string_storage"
      },
      {
        "astId": 961,
        "contract": "src/VTailERC721.sol:VTailERC721",
        "label": "_symbol",
        "offset": 0,
        "slot": "1",
        "type": "t_string_storage"
      },
      {
        "astId": 965,
        "contract": "src/VTailERC721.sol:VTailERC721",
        "label": "_owners",
        "offset": 0,
        "slot": "2",
        "type": "t_mapping(t_uint256,t_address)"
      },
      {
        "astId": 969,
        "contract": "src/VTailERC721.sol:VTailERC721",
        "label": "_balances",
        "offset": 0,
        "slot": "3",
        "type": "t_mapping(t_address,t_uint256)"
      },
      {
        "astId": 973,
        "contract": "src/VTailERC721.sol:VTailERC721",
        "label": "_tokenApprovals",
        "offset": 0,
        "slot": "4",
        "type": "t_mapping(t_uint256,t_address)"
      },
      {
        "astId": 979,
        "contract": "src/VTailERC721.sol:VTailERC721",
        "label": "_operatorApprovals",
        "offset": 0,
        "slot": "5",
        "type": "t_mapping(t_address,t_mapping(t_address,t_bool))"
      },
      {
        "astId": 1898,
        "contract": "src/VTailERC721.sol:VTailERC721",
        "label": "_ownedTokens",
        "offset": 0,
        "slot": "6",
        "type": "t_mapping(t_address,t_mapping(t_uint256,t_uint256))"
      },
      {
        "astId": 1902,
        "contract": "src/VTailERC721.sol:VTailERC721",
        "label": "_ownedTokensIndex",
        "offset": 0,
        "slot": "7",
        "type": "t_mapping(t_uint256,t_uint256)"
      },
      {
        "astId": 1905,
        "contract": "src/VTailERC721.sol:VTailERC721",
        "label": "_allTokens",
        "offset": 0,
        "slot": "8",
        "type": "t_array(t_uint256)dyn_storage"
      },
      {
        "astId": 1909,
        "contract": "src/VTailERC721.sol:VTailERC721",
        "label": "_allTokensIndex",
        "offset": 0,
        "slot": "9",
        "type": "t_mapping(t_uint256,t_uint256)"
      },
      {
        "astId": 2945,
        "contract": "src/VTailERC721.sol:VTailERC721",
        "label": "royaltyReceiversByHash",
        "offset": 0,
        "slot": "10",
        "type": "t_mapping(t_uint256,t_address)"
      },
      {
        "astId": 2949,
        "contract": "src/VTailERC721.sol:VTailERC721",
        "label": "royaltyFeesByHash",
        "offset": 0,
        "slot": "11",
        "type": "t_mapping(t_uint256,t_uint256)"
      },
      {
        "astId": 7,
        "contract": "src/VTailERC721.sol:VTailERC721",
        "label": "_owner",
        "offset": 0,
        "slot": "12",
        "type": "t_address"
      },
      {
        "astId": 4153,
        "contract": "src/VTailERC721.sol:VTailERC721",
        "label": "_baseUri",
        "offset": 0,
        "slot": "13",
        "type": "t_string_storage"
      },
      {
        "astId": 4155,
        "contract": "src/VTailERC721.sol:VTailERC721",
        "label": "_proxyRegistryAddress",
        "offset": 0,
        "slot": "14",
        "type": "t_address"
      },
      {
        "astId": 4157,
        "contract": "src/VTailERC721.sol:VTailERC721",
        "label": "minter",
        "offset": 0,
        "slot": "15",
        "type": "t_address"
      },
      {
        "astId": 4159,
        "contract": "src/VTailERC721.sol:VTailERC721",
        "label": "mintingMax",
        "offset": 0,
        "slot": "16",
        "type": "t_uint256"
      },
      {
        "astId": 4161,
        "contract": "src/VTailERC721.sol:VTailERC721",
        "label": "nextIndexValue",
        "offset": 0,
        "slot": "17",
        "type": "t_uint256"
      },
      {
        "astId": 4164,
        "contract": "src/VTailERC721.sol:VTailERC721",
        "label": "tokenHashes",
        "offset": 0,
        "slot": "18",
        "type": "t_array(t_uint256)dyn_storage"
      }
    ],
    "types": {
      "t_address": {
        "encoding": "inplace",
        "label": "address",
        "numberOfBytes": "20"
      },
      "t_array(t_uint256)dyn_storage": {
        "base": "t_uint256",
        "encoding": "dynamic_array",
        "label": "uint256[]",
        "numberOfBytes": "32"
      },
      "t_bool": {
        "encoding": "inplace",
        "label": "bool",
        "numberOfBytes": "1"
      },
      "t_mapping(t_address,t_bool)": {
        "encoding": "mapping",
        "key": "t_address",
        "label": "mapping(address => bool)",
        "numberOfBytes": "32",
        "value": "t_bool"
      },
      "t_mapping(t_address,t_mapping(t_address,t_bool))": {
        "encoding": "mapping",
        "key": "t_address",
        "label": "mapping(address => mapping(address => bool))",
        "numberOfBytes": "32",
        "value": "t_mapping(t_address,t_bool)"
      },
      "t_mapping(t_address,t_mapping(t_uint256,t_uint256))": {
        "encoding": "mapping",
        "key": "t_address",
        "label": "mapping(address => mapping(uint256 => uint256))",
        "numberOfBytes": "32",
        "value": "t_mapping(t_uint256,t_uint256)"
      },
      "t_mapping(t_address,t_uint256)": {
        "encoding": "mapping",
        "key": "t_address",
        "label": "mapping(address => uint256)",
        "numberOfBytes": "32",
        "value": "t_uint256"
      },
      "t_mapping(t_uint256,t_address)": {
        "encoding": "mapping",
        "key": "t_uint256",
        "label": "mapping(uint256 => address)",
        "numberOfBytes": "32",
        "value": "t_address"
      },
      "t_mapping(t_uint256,t_uint256)": {
        "encoding": "mapping",
        "key": "t_uint256",
        "label": "mapping(uint256 => uint256)",
        "numberOfBytes": "32",
        "value": "t_uint256"
      },
      "t_string_storage": {
        "encoding": "bytes",
        "label": "string",
        "numberOfBytes": "32"
      },
      "t_uint256": {
        "encoding": "inplace",
        "label": "uint256",
        "numberOfBytes": "32"
      }
    }
  }
}